:020000040800F2
:10000000000A00204D5B0008595A00085B5A00089E
:10001000635A0008655A0008675A0008000000008B
:10002000000000000000000000000000695A000805
:100030006B5A0008000000006D5A00086F5A000853
:10004000815B0008855B0008895B00088D5B000808
:10005000915B0008955B00087D5A0008995B0008D9
:100060009D5B0008A15B0008A55B0008A95B000878
:10007000AD5B0008B15B0008B55B0008B95B000828
:10008000BD5B0008C15B0008C55B0008C95B0008D8
:10009000CD5B0008D15B0008D55B0008D95B000888
:1000A000DD5B0008E15B0008E55B0008E95B000838
:1000B000ED5B00080000000000000000F15B00089C
:1000C000F55B00080000000000000000F95B00087C
:1000D00000000000FD5B0008015C0008000000005B
:1000E000055C0008095C000800000000000000003A
:1000F0000000000000000000000000000000000000
:100100000000000000000000000000000D5C00087E
:100110000000000000000000115C0008155C0008F1
:10012000195C00081D5C0008215C0008255C0008C3
:10013000295C000800000000000000000000000032
:100140002D5C0008315C0008355C0008735A00081B
:10015000395C00083D5C0008415C0008455C000813
:10016000495C00084D5C0008515C0008000000007C
:10017000555C0008595C0008000000000000000009
:100180005D5C0008615C0008655C00082DE9F84FC3
:10019000040000F0F3822068DFF8288930B110F005
:1001A0003F0F03D14FF4CF7100F0DEFBDFF8906812
:1001B000DFF81479B068F56800F00C092078C10602
:1001C00005F003057AD5A069002818BF012803D0DF
:1001D00040F2A71100F0C8FBE069B0F5807F03D3BF
:1001E0004FF4D47100F0C0FB206A002818BF10281B
:1001F00017D0202818BF302813D0402818BF502807
:100200000FD0602818BF70280BD0802818BF902806
:1002100007D0A02818BFB02803D040F2A91100F0E1
:10022000A3FBB9F1000F04D0B9F10C0F08BF012DE9
:100230002CD13068810702D5A06900285AD03168D6
:1002400008074EBF316879680909206A01F0F0019A
:10025000814206D200F0FAFB002808D100F093FAA0
:1002600007E000F090FA206A00F0F0FB002840F070
:10027000858200F087FBB26800F079FBDFF8C807E1
:10028000006800F039FC010018D07AE2A06900286B
:1002900000F07D80316841F00101316000F04EFCDA
:1002A00082463068810707D400F048FCA0EB0A00C2
:1002B0000328F6D3032064E200F065FA2078C10732
:1002C0001AD5606800281CBFB0F5803FB0F5A02F9C
:1002D00003D040F2112100F047FBB9F1080F04D020
:1002E000B9F10C0F08BF032D62D13068810303D52B
:1002F0006068002800F042822178880725D5E068F0
:10030000002818BFB0F5807F03D04FF4117100F0C2
:100310002BFB2069202803D340F2452100F024FB69
:10032000B9F1040F04D0B9F10C0F08BF022D78D138
:100330003068410502D5E0680028DBD0706821698B
:1003400020F0F85040EA016070602078010740F129
:100350009C806069002807D0012807D040F28521E1
:1003600000F002FB6069002800F07F80786840F0B0
:100370000100786000F0E2FB05467868810700F133
:10038000848000F0DBFB401B0328F6D392E7306843
:1003900040084000306000F0D1FB824630688107A1
:1003A0008CD500F0CBFBA0EB0A000328F6D381E745
:1003B0006068B0F5803F04D1306840F48030306030
:1003C00011E0B0F5A02F306806D140F480203060F5
:1003D000316841F4803105E020F4803030603168CC
:1003E00021F480213160606868B100F0A7FB82468B
:1003F000306881033FF580AF00F0A0FBA0EB0A005E
:100400006528F5D356E700F099FB824630688103F2
:100410007FF572AF00F092FBA0EB0A006528F5D3E0
:1004200048E7E06880B1316841F48071316000F0E4
:1004300085FB0546306841053FF580AF00F07EFB47
:10044000401B0328F6D335E7306820F48070306015
:1004500000F074FB0546306841057FF576AF00F08B
:100460006DFB401B0328F6D324E778684008400062
:10047000786000F063FB05467868810705D500F0D9
:100480005DFB401B0328F7D314E7207841076DD5A7
:10049000A068002500281CBF0128052803D04FF4C0
:1004A000367100F061FAB06DC10009D4B06D40F052
:1004B0008050B0650125B06D00F08050009000982C
:1004C000DFF808A6DAF80000C10513D4DAF8000056
:1004D00040F48070CAF8000000F030FB8346DAF880
:1004E0000000C10506D400F029FBA0EB0B00032897
:1004F000F5D3DFE6A068012804D1386840F0010098
:10050000386010E00528386806D140F004003860F3
:10051000396841F0010105E0400840003860396861
:1005200021F004013960A06841F2893A60B100F01D
:1005300005FB83463868810713D400F0FFFAA0EB6F
:100540000B005045F6D3B5E600F0F8FA834638685C
:10055000810706D500F0F2FAA0EB0B005045F6D368
:10056000A8E61DB1B06D20F08050B06520788106FE
:1005700029D5606AB8B1012805D040F23D3100F0BC
:10058000F3F9606A78B1B86840F00100B86000F033
:10059000D5FA0546B868810715D400F0CFFA401B9C
:1005A0000328F7D386E6B86840084000B86000F03A
:1005B000C5FA0546B868810705D500F0BFFA401BAB
:1005C0000328F7D376E6A06A002809D0012818BFCF
:1005D000022807D040F2663100F0C6F9A06A002870
:1005E00000F0CE80A06AB9F10C0F00F09C800228C8
:1005F0007DD1E06A002818BF012807D0022818BF63
:10060000032803D04FF45C7100F0AEF9206B08B101
:10061000092803D340F2713100F0A6F9606B083865
:100620004F2803D340F2723100F09EF9A06B801E78
:100630001E2803D34FF45D7100F096F9E06B022899
:1006400018BF042807D0062818BF082803D040F296
:10065000763100F089F9206C022818BF042807D0F1
:10066000062818BF082803D040F2773100F07CF943
:10067000306820F08070306000F060FA0546306825
:10068000810105D500F05AFA401B0328F7D311E683
:10069000F068DFF83C14E26A0840216B1043491E01
:1006A00040EA0110E26B616B520840EA0120216CC4
:1006B000521E490840EA4250491E40EA4160A16B7F
:1006C00040EAC160F060306840F080703060F168EE
:1006D00041F08071F16000F031FA04463068810128
:1006E0004ED400F02BFA001B0328F7D3E2E5306864
:1006F00020F0807030603168080103D4F168890807
:100700008900F160F168DFF8CC030140F16000F08E
:1007100015FA04463068810132D500F00FFA001B4B
:100720000328F7D3C6E5012828D0F068E26A00F074
:100730000301914201BF00F07001226B521EB1EB28
:10074000021F1BD1626B00F4FE41B1EB022F02BF0E
:1007500000F07841A26BB1EBC26F0FD1E26B52088F
:1007600000F4C001521EB1EB425F07D1216C490871
:1007700000F0C060491EB0EB416F01D0012000E0E5
:100780000020BDE8F28F306840F00800306031682A
:10079000206A21F0F001014331607168E06921F4C1
:1007A0007F4141EA0021716070472DE9F843040060
:1007B0000D4647D02068DFF80C8308B1102803D31A
:1007C00040F22E4100F0D0F8002D18BF012D08D0C6
:1007D000022D1CBF032D042D03D040F22F4100F049
:1007E000C3F8DFF8F462306800F00700A84209D2CD
:1007F0003168C90845EAC1013160306800F007007E
:10080000A8426BD12078DFF83872C10738D560680C
:10081000A8B1012817D002280DD0032806D040F235
:10082000464100F0A1F86068032802D138688101D0
:1008300007E0022802D13868810302E018B938685D
:10084000810703D44AE03868410547D5BA68606833
:10085000920840EA8202BA6000F070F98146B868F6
:10086000616800F00C00B0EB810F09D000F066F970
:10087000A0EB090041F289318842F0D3032071E0F6
:10088000207881071BD5A068002818BF802810D0C9
:10089000902818BFA0280CD0B02818BFC02808D0B6
:1008A000D0281CBFE028F02803D040F2A24100F07D
:1008B0005BF8B968A06821F0F0010143B9603168C4
:1008C00001F007018D420BD23068C00845EAC00034
:1008D0003060316801F00701A94201D0012041E0F8
:1008E0002078410717D5E068002818BFB0F5806F61
:1008F0000BD0B0F5A06F1CBFB0F5C06FB0F5E06FC6
:1009000003D040F2C14100F02FF8B968E06821F44B
:10091000E0610143B9602178080718D520690028F3
:1009200018BFB0F5806F0BD0B0F5A06F1CBFB0F54D
:10093000C06FB0F5E06F03D04FF4996100F014F888
:10094000B868216920F4605040EAC100B86000F046
:1009500019F8BA6800F00BF8BDE8F2433A480068AD
:1009600000F0CAB8BDE8F283404600F004BDDFF8ED
:100970006C11C2F30312895C324A01F01F01C840B6
:100980001060704770B52E4A564B9068D6680025A7
:10099000002110F00C0006F00306534C03D00C2885
:1009A00012D1012E1AD115682E0704D4444D2E6899
:1009B000C6F3032502E01568C5F303154B4E56F840
:1009C000255048B9294624E0042808BF214620D0F4
:1009D00008281ED119461CE00C281AD1D06800F056
:1009E0000300022803D0032808BF1D4600E0254667
:1009F000D168D068D268C0F306204543C1F3021025
:100A0000C2F34161401C491CB5FBF0F04900B0FB4A
:100A1000F1F1084670BD0B48314A0068136834494B
:100A2000C3F3022206E007482D4A006813683049E4
:100A3000C3F3C222895C01F01F01C8407047000067
:100A4000001002400C000020040000207CB5294E5C
:100A5000054630680024C10002D500F0FBFC0EE022
:100A6000306840F080503060316801F08051009172
:100A7000009800F0EFFC316821F080513160B0F552
:100A8000007F04D1802D0CD9A12D09D304E0802D45
:100A900088BF032405D801D1022402E0702D00D1C3
:100AA00001240D480168C90844EAC10101600068D9
:100AB00000F00700A04201D0012076BD002076BDE5
:100AC00094100240F057000890100240007000405F
:100AD0008C809D01FFFFEEFE00200240C8590008F7
:100AE0000810024000127A000024F400285A00087E
:100AF000785B00085810024070B50E4E0446B0688E
:100B00000025A0B14FF47A710B4AB1FBF0F11068E7
:100B1000B0FBF1F000F058FD48B9102C07D20022CC
:100B200021464FF0FF3000F00FFD746000E001251A
:100B3000284670BD000000200C000020014800681D
:100B4000704700BF000000202DE9F04FA3B000F077
:100B500061FD00F0CAFB1422002101A800F069FD2C
:100B6000DFF84807DFF848A70168DFF8485741F089
:100B70000401016005F1B806026802F00402009267
:100B80000099026842F001020260036803F0010369
:100B900000930099026842F002020260036803F0C9
:100BA000020300930099026842F08002026041F65D
:100BB0000D11006800F08000009000220098019163
:100BC0000292039201A94FF0904000F059FD3B20A2
:100BD0000021019002910391504601A900F050FDBF
:100BE000DFF8D406A860012141F2210028612973B1
:100BF000012008216873696120204FF6FF71E861C8
:100C0000A96101208021A862296205F1080000F095
:100C1000BFFEDFF8A806DFF8A8163060002201202A
:100C2000F0607160B26032617261B261F261326231
:100C3000304600F095FF0021304601F0F1F9002127
:100C4000304601F020FA05F12C06DFF87806B06294
:100C50004FF48271F162002030634FF4E061B063C1
:100C6000F06371634FF400703064282171640020D8
:100C7000B064F06430650721B065F065716505F119
:100C8000540001F04BFADFF84006DFF8401601602F
:100C90004FF41652426000230C218360C36003614D
:100CA00041618361C3610362436201F023FD4FF43C
:100CB000FA6002F027F902F03FF902F06FF904211F
:100CC00000F004FA0FF2B0600FF2B46902F08FF98D
:100CD000CFA40FF2383BCFA742F2107842463946F4
:100CE000584600F042FA0028F8D0052100F006FA34
:100CF00000F0E8F900F0A5F942463946484600F010
:100D000034FA0028EAD000F09CF9062100F0F6F948
:100D100000F0D8F9424639460FF2846000F025FA17
:100D20000028DBD000F08DF9072100F0E7F900F092
:100D3000C9F9424639460FF2886000F016FA0028D9
:100D4000CCD000F07EF9082100F0D8F900F0BAF913
:100D5000424639460FF2786000F007FA0028BDD00D
:100D600000F06FF9092100F0C9F900F0ABF902F0C9
:100D700049F900F062F900F0A8F90FF260600FF293
:100D800064690FF2746B02F032F900F052F902F06C
:100D900039F900F04EF900F098F9484602F027F9C9
:100DA00000F047F99CA40BE000F0ACF900F068F902
:100DB0001422002105F1400000F03BFC00203080AF
:100DC0006846DFF80C158C2202F026F9307818B14D
:100DD000012800F08E80F0E002F0AAF80028EFD1A0
:100DE000012002F0A3F80028EAD1284602F0A2F878
:100DF0008028E5D10020E87105F13001284602F095
:100E000055F948B929182A1891F83010401C30318A
:100E1000102882F83010F5DBB06A016821F040013B
:100E20000160322002F06EF802F0ECF8322002F09D
:100E300069F800F04AF9484602F0D9F8002100F0BC
:100E40005DF905F1300002F0D2F800F0F6F802F09A
:100E5000D9F8322002F056F800F037F9484602F08F
:100E6000C6F8032100F04AF90FF2805002F0BFF8F3
:100E7000684600F05CF905F1300000F058F958467A
:100E800000F055F90FF2785000F051F900F0DCF85D
:100E9000C8B100F0D6F800F0E0F8A0B100F0D1F849
:100EA00000F0D6F868B14146A7A000F0BAF940B109
:100EB0004246A6A10FF2745000F057F900F009F96C
:100EC00001E000F01FF900F0CDF800E0322002F060
:100ED00019F8284602F02EF88728F7D100F0ADF86F
:100EE00000F0C0F802F00EF800F0CAF800203070F0
:100EF00066E7082100F0C0F820B900F08FF8302133
:100F000000F093F8012100F0B4F820B900F086F861
:100F1000312100F08AF8022100F0ABF820B900F08E
:100F20007DF8322100F081F84FF4807100F0A4F8D0
:100F300020B900F073F8332100F077F84FF4006126
:100F400000F09AF820B900F069F8342100F06DF84B
:100F50004FF4805100F090F820B900F05FF835218F
:100F600000F063F8082100F084F820B900F056F88A
:100F7000362100F05AF8102100F07BF820B900F07B
:100F80004DF8372100F051F8202100F072F820B917
:100F900000F044F8382100F048F8042100F06CF823
:100FA00020B900F03BF8392100F03FF8012100F0B2
:100FB00063F800289CD1022099E7684600F0B7F852
:100FC00005F1300000F0B3F8584600F0B0F805F134
:100FD000400000F0ACF800F037F8002814D000F022
:100FE00030F800F03AF800280ED000F02AF800F0AF
:100FF0002FF8002804D0414653A000F012F9002831
:101000003FF4D2AE00F065F8D0E600BF41540000D6
:101010002E0000004F4B0000220000007078401CA2
:10102000707005F13F02C0B27047115405F14000E5
:1010300033E04FF47A7001F065BF4FF4FA7001F0BD
:1010400061BF0A2001F05EBF4246394620468CE06F
:10105000424639460FF2C43087E0424639460FF225
:10106000A83082E0B06A016821F04001016064208C
:101070007047504600F025BC4FF0904000F021BC76
:1010800080B501F0BFFF00F032F800F01EF8BDE8B7
:1010900002400FF2503001F0AABF10B5044601F033
:1010A000B1FF00F024F800F010F800F023F804215C
:1010B00000F024F800F006F8BDE810404FF49670F8
:1010C00001F020BF204601F092BF0521012001F070
:1010D0009BBF80B501F096FF00F009F8FFF7F5FF20
:1010E00000F008F800F009F80FF24C3017E0642027
:1010F00001F008BFBBA001F07ABF0221022001F07D
:1011000083BF000080B501F07DFFFFF7F0FFFFF720
:10111000DCFFFFF7EFFFFFF7F0FF00BFCAA001F011
:1011200066FFBDE802404FF47A7001F0EBBE10B5E7
:10113000044602F02FF82146BDE8104082B24FF479
:101140007A73614801F032BB323030003130000038
:1011500010B5044602F01EF8012805DB01462046C2
:10116000BDE8104002F020B810BD2DE9FA4E074648
:10117000584D93462846FFF7EBFFFFF7DFFC064686
:10118000FFF7DCFC8246384602F004F8DFF83891BD
:1011900000F040F844A7384601F0FCFF00F03AF8B0
:1011A00000244D4F00F02FF830B1FFF7C7FC801B33
:1011B0008345F7D2002024E0FFF7C0FC06463878CC
:1011C000E1B2641C685406E03A78E3B2641CEA5465
:1011D000FFF7B4FC8246FFF7B1FC801B5845E1D213
:1011E00000F011F80028EFD0FFF7A8FCA0EB0A00F0
:1011F0006528F0D30099284601F0D9FF0028D1D006
:101200000120BDE8F68E4FF47A7301223946484634
:1012100001F026BB82B24FF47A733946484601F09A
:10122000C5BA2DE9F94D2B4E8A463046FFF790FF9F
:10123000FFF784FC0546FFF781FC00248046DFF8B9
:1012400088B0254F00F04AF830B1FFF777FC401B1B
:101250008245F7D2002024E0FFF770FC054638787D
:10126000E1B2641C705406E03A78E3B2641CF254B4
:10127000FFF764FC8046FFF761FC401B5045E1D25C
:1012800000F02CF80028EFD0FFF758FCA0EB080086
:101290006528F0D30099304601F089FF0028D1D0AD
:1012A0000120BDE8F68D00000D0A00004C10024040
:1012B0000004004878040020003002400054004040
:1012C000EC9C9010003001407C050020003801406B
:1012D0003053000884020020FC0500204FF47A738C
:1012E00001223946584601F0BBBA00B5ABB04422E2
:1012F000002105A800F09DF914220021684600F0A5
:1013000098F95422002116A800F093F94FF4807147
:10131000012208910E921021022209910F9210923F
:101320000A21012211921291222005900722022106
:1013300013921491159105A8FEF728FF0F20009035
:101340000321002201910292039204926846FFF762
:101350002CFA42F24300169000211E911F91219118
:10136000269116A801F03AFF4FF4007000F078F8CB
:101370002BB000BD7047704757656C636F6D65009B
:1013800041542B53415042523D332C312C22436F58
:101390006E74797065222C2247505253220000004F
:1013A00041542B53415042523D332C312C22415059
:1013B0004E222C22652D636F6E6E656374220000D1
:1013C00041542B53415042523D312C31000000001A
:1013D00041542B48545450494E495400526561645D
:1013E00079000000436F6E656B00000053656E640A
:1013F000696E672E2E2E00002674696D653D000013
:10140000313030300000000041542B4854545050CB
:101410004152413D22434944222C310041542B4842
:10142000545450414354494F4E3D300041542B4891
:10143000545450524541440053656E6420537563C3
:10144000636573730000000053656E642046616934
:101450006C656400DFF88800006800F4C0607047C5
:1014600010B5B0F5007FDFF8784013D0B0F5806F8D
:1014700002D0A82100F030F8216801F4C061B1F574
:10148000806F05D0206820F4C06040F48060206048
:10149000002010BD206800F4C060B0F5007FF7D0D8
:1014A0002068DFF84010DFF8403020F4C06040F4DE
:1014B0000070206032200A684243B2FBF3F0401C07
:1014C00000E0401E61694A0501D50028F9D1606934
:1014D0004105DDD5032010BD0448FFF74CBF0000D7
:1014E000007000400C00002040420F0054550008DE
:1014F0000901020003D4DFF8000181547047DFF8CE
:10150000FC3002F00F021A4402F8041C704710B5B8
:101510000446072C18BF062C07D0052C1CBF042C32
:10152000032C02D0A72100F064F8DFF8D420106863
:101530004FF6FF012402084004F4E0640443DFF89E
:10154000C4000443146010BDF8B51546102D0446C0
:101550000E46DFF8B47003D3BF213846FFF70BFF08
:10156000102E03D3C0213846FFF705FFDFF89000A7
:101570000168C1F302200121C0F10702052A2EBF34
:101580000F2201FA02F2521E031D072B34BF002066
:10159000C01E1640864001FA00F0401E054045EA94
:1015A00006012046BDE8F440A2E7BFF34F8FDFF805
:1015B0005010DFF858000A6802F4E06202430A6043
:1015C000BFF34F8F00BFFDE710B5401EB0F1807F25
:1015D00001D3012010BDDFF8384060600F214FF0CB
:1015E000FF30FFF785FF0021A16007202060002069
:1015F00010BD0548FFF7BFBE00E400E018ED00E0B5
:101600000CED00E00000FA05BC5300080400FA05E8
:1016100010E000E0032010B5FFF779FF0020FFF78E
:101620006BFA0024002814BF012402F0A3F820461E
:1016300010BD10B5044610460A460146204602F089
:101640006FF9204610BD30B4002513E050F8042B8C
:10165000D30744BFA9F101039A18091F042942F8CE
:10166000045BFAD213468C0744BF15809B1CC90744
:1016700048BF1D7050F8041B0029E7D130BC7047EB
:101680002DE9FE4F05460027B5F1904F1CBFDFF84E
:10169000980285420E460AD0DFF890128D421CBF98
:1016A000DFF88C22954202D0B32100F018F930689F
:1016B000010402D0000C000402D0B42100F00FF9A4
:1016C0007068002818BF012823D0112818BF0228ED
:1016D0001FD012281CBFDFF85C12884219D0DFF837
:1016E000582290421CBFDFF85412884211D0DFF814
:1016F000502290421CBFDFF84C12884209D0DFF81C
:10170000482290421CBF03280B2802D0B52100F0CC
:10171000E6F8B06890B3012818BF02282ED0B62191
:1017200000F0DDF82AE0DFF80402854214BF07204C
:10173000022000FA0CF0184341F82200E143DFF8E0
:101740000C02026873680A40DB0348BF2243026050
:10175000426873680A409B0348BF22434260826824
:1017600073680A40DB0248BF22438260C2680A40B5
:1017700071688B0248BF2243C2607F1C346834FA10
:1017800007F000F09680012000FA07F818EA040438
:10179000F3D0B8008DF80000DFF8B491706802282B
:1017A00018BF122826D1B5F1904F1CBF5E48854264
:1017B00009D05E498D421CBF5D48854203D0C521DA
:1017C0004846FFF7D8FD3069102803D3C6214846A4
:1017D000FFF7D1FDF80805EB80000F23016A9DF8A3
:1017E000002002F01C0293409943336903FA02F28D
:1017F000114301624FEA470A0321286801FA0AF1FE
:101800006FEA010B317901F0030100F054F8286010
:101810007068012818BF022803D0112818BF1228A9
:101820001AD1F068002818BF012807D0022818BF75
:10183000032803D0DA214846FFF79DFDA868F16828
:1018400000F039F8A860686820EA08017068C0F301
:101850000010B84008436860E8680BEA0001B0680F
:1018600000FA0AF00843E8607168C80085D5394875
:10187000016841F001010160BA080068364900F0D2
:1018800001000190019851F822009DF8003003F00A
:101890000C0C0F2303FA0CF320EA0303B5F1904F6D
:1018A00008BF002004D0204885427FF43CAF0120CF
:1018B0003FE7BDE8F78F0BEA000001FA0AF10843A1
:1018C000704738B50D00044603D14FF4C97100F0DC
:1018D00006F82069284018BF0120C0B232BD1C485C
:1018E000FFF749BDF8B50D4616462A000446184FC5
:1018F00004D14FF4D9713846FFF73DFD300008D0D0
:10190000012E04D040F2B3113846FFF734FDA56133
:10191000F1BDA562F1BD114A136803421CBF1060FE
:1019200000F01EB87047000000040048000800489E
:10193000001C0048000011100000211000003110B0
:1019400000001210000022100000321000040140BC
:10195000E8560008601002400800014014040140ED
:10196000704730B40EE00268436802440830DC0778
:1019700044BFA9F10104E31852F8045B43F8045B87
:10198000091FF9D150F8041B0029ECD130BC704775
:1019900038B5040036D02268364B374D9A4202D013
:1019A000702100F063F8607F20B900212177204684
:1019B00001F0F6FE02206077207930B101281AD0BC
:1019C0007E2100F053F82079A8B920682B494161A5
:1019D0002068816821F018018160607930B10128A8
:1019E00012D0902100F042F8607968B920684FF079
:1019F000FF3101610BE0E268A168204601F0C4FFFD
:101A00000028EAD0012032BD2168206908616069A0
:101A1000002818BF202806D0402818BF602802D010
:101A20009C2100F023F821688A68606922F0600236
:101A300002438A60A069002818BF802802D0A02134
:101A400000F014F821688A68A06922F0800202433D
:101A50008A60206A01281CBF0228032802D0A52121
:101A600000F004F801206077002032BD2846FFF71F
:101A700082BC00000030024064560008B71DC1045B
:101A800038B5022304460020637723689D6845F03B
:101A900001059D60236A012B10D012D3032B08D0BF
:101AA0003CBF204600F044F80BE051F820501D6088
:101AB000401C23689042F8D3186802E0204600F0EA
:101AC00003F80121617732BD70B500230CE0667820
:101AD0002578360446EA0566A578E47846EA0526C0
:101AE000056826432E605B1CB3EB920F01EB830469
:101AF000EDD312F0030218D0012A03D10268217835
:101B0000117012E0022A06D12178627842EA01229D
:101B100001680A8009E0032A07D101682278637806
:101B200043EA02230B80A2780A700068006870BD47
:101B3000F0B5002308E001EB830631F823507788E5
:101B400047EA054727605B1C0468B3EB520FF2D3EA
:101B5000D00744BF31F8231021802068F0BD000079
:101B600038B5040001D1012032BD2068DFF8A01291
:101B7000DFF8A05288421CBFDFF89C22904203D0BD
:101B80004FF4EF7100F097F8A068B0F5806F03D3C1
:101B900040F2DF1100F08FF8E068012818BF02283A
:101BA00003D04FF4F07100F086F82069002818BFC8
:101BB000B0F5004F03D040F2E11100F07CF860690D
:101BC000B0F5807F03D34FF4F17100F074F8A06991
:101BD000002818BF01280FD0022818BF03280BD0F7
:101BE000042818BF052807D0062818BF072803D0E7
:101BF00040F2E31100F05FF8E069002818BFB0F58B
:101C0000002F03D04FF4F27100F055F8206A00283D
:101C100018BFB0F5003F03D040F2E51100F04BF8DB
:101C200004F14005687820B900212970204601F0B0
:101C3000C8FD00F043F86068216820F0706008611A
:101C40002068816821F400418160E06821680128F2
:101C5000A0680CBF40F4004040F404408860E06895
:101C6000022803D120684FF4006141602068416878
:101C700041F0007141F4004141602068C16821F4E5
:101C80000041C16060692169A2690143206841EA9D
:101C90000221C160206AE169226801431160206865
:101CA000016841F001010160002068602021697035
:101CB0002063A87032BD2846FFF75DBB2420687002
:101CC0002068016849084900016070472DE9F84320
:101CD00000F049F83ED1217801293BD00120207045
:101CE000FEF72CFF00F07AF800282ED1212000F01A
:101CF00043F8DFF82801B1F5807F28BF358506D28B
:101D0000728D328500F05DF803E03585002000F02B
:101D100053F8414600F085F800F01FF812D000F0AB
:101D2000B4F890B900F038F8F6D089B20029F3D1B0
:101D300000F04CF848B900F02BF8E6D2728D3285ED
:101D40000020DFE700F0C9F808B1012003E000F04F
:101D50004FF800E00220BDE8F283708D00284A466B
:101D6000394630467047064606F14004884660789A
:101D7000202815461F46704760701021A170002072
:101D80006060756277857063FF25089F718D70476D
:101D9000708DB0F5807F7047706A3268017891620B
:101DA000706A411C7162708D411E7185308D411EBB
:101DB0003185708D0028704700904FF08073FF22AE
:101DC000704700904FF00073D2B27047CDF800908A
:101DD0003B4600228021304600F036B88146CDF8DF
:101DE0000090192301224FF40041304600F02CB836
:101DF00031682020C8613168DFF82C004A68024051
:101E00004A60202161700020A0702070704700009F
:101E1000005400406C570008005C00400020008027
:101E20005946304600F0ABB800E800FE0068816912
:101E30008A0744BF002181628169CA0703D481698E
:101E400041F00101816170472DE9F041069F05468F
:101E50000E4690461C46286881693140B1420CBF4D
:101E60000120002040450DD114F1010FF3D0FEF701
:101E700065FEC01B844201D3002CECD100F021F898
:101E8000012000E00020BDE8F08170B505460C4659
:101E9000164628688169880711D400F036F808B121
:101EA000012070BD14F1010FF3D0FEF747FE801B37
:101EB000844201D3002CECD100F003F8F0E70020BD
:101EC00070BD05F140002022416841F020014160D1
:101ED0004270002181700170704770B505460C4654
:101EE00016462868816988060DD400F00EF840B9BE
:101EF000FEF724FE801B844201D3002CF1D1FFF7B2
:101F0000E0FF012070BD002070BD3246214628460A
:101F1000FFE770B505460C4628688169C806164675
:101F20002BD5286881698A060FD414F1010FF8D0E7
:101F3000FEF704FE801B844201D3002CF1D105F191
:101F40004000416841F0200111E01021C1612020D2
:101F50002A68D0612846FFF769FF2868294A416846
:101F60001140416005F14000416841F004014160C9
:101F70002022FFF7ADFF012070BD002070BD2DE9CC
:101F8000F84307460E4638681F49904688421CBFF2
:101F90001E4A90421C46DFF8789004D041F6AC010E
:101FA0004846FFF7E8F9B4F1807F18BFB4F1007F2D
:101FB00005D024B141F6AD014846FFF7DCF9089D94
:101FC000144885421CBF14498D4209D00C488542F3
:101FD00018BF002D04D041F6AE014846FFF7CBF9FB
:101FE00038680E4A416842EA55529143C6F30906E1
:101FF0000E4346EA084626432E434660BDE8F18379
:102000000020008000E800FE00540040005C00401A
:102010006C5700080040008000240080FF63FF032D
:1020200070B505460C46286800F050F81CBF384AC9
:10203000904202D0642100F04DF8002C18BFB4F596
:10204000805F02D0652100F045F805F1400041783D
:10205000202916D10278012A13D0012101702422EF
:10206000427029680B685B085B000B6029680A688E
:1020700022F480520A6029680B681C430C602968AE
:102080002BE0022070BD70B504460D46206800F0BC
:102090001DF81CBF1E4A904202D0922100F01AF88F
:1020A000102D02D3932100F015F800F020F80BD189
:1020B0000278012A08D000F01FF822F4706242EA88
:1020C00005220A60216808E0022070BD1149124E05
:1020D000884270473046FFF74EB90A6842F0010265
:1020E0000A602021417000220270002070BD04F1BE
:1020F000400041782029704701210170242242705C
:1021000021680B685B085B000B6021680A687047F8
:10211000005C004000540040CC54000870B504003E
:1021200001D1012070BD2068DFF84414DFF8445469
:1021300088421CBFDFF84024904203D04FF4A271C4
:1021400000F0DAF86068002818BFB0F5827F03D08D
:1021500040F2451100F0D0F8A06800281CBFB0F58F
:10216000806FB0F5004F03D04FF4A37100F0C4F8B6
:10217000E068B0F5706F18BFB0F5606F23D0B0F5B0
:10218000506F18BFB0F5406F1DD0B0F5306F18BF5D
:10219000B0F5206F17D0B0F5106F18BFB0F5006F15
:1021A00011D0B0F5E06F18BFB0F5C06F0BD0B0F52F
:1021B000A06F1CBFB0F5806FB0F5407F03D040F238
:1021C000471100F099F8A069B0F5007F1CBF002806
:1021D000B0F5802F03D04FF4A47100F08DF8606B40
:1021E000082818BF002803D040F2491100F084F8F5
:1021F000E069002818BF08280FD0102818BF182839
:102200000BD0202818BF282807D0302818BF38281E
:1022100003D04FF4A57100F06FF8206A002818BFB2
:10222000802803D040F24B1100F066F8606A38B1A4
:10223000102817D04FF4A67100F05EF8606A88B9D4
:102240002069002818BF022803D040F24F1100F087
:1022500053F86069002818BF012803D04FF4A87113
:1022600000F04AF80020A06204F15C05687820B90B
:1022700000212970204601F0CFFA00F040F8E16813
:10228000B1F5E06F04D90022B1F5706F03D104E01D
:102290004FF4805201D00020A062206B30B9B1F51C
:1022A000E06F87BF02202063012121636368A0687B
:1022B00021692668034360690B43A169034301F464
:1022C0000071E0690B43216A0343A06A0B43034397
:1022D0003360A369606A616B1B0C03F00403034362
:1022E000E0680B4303431A4323685A600021696086
:1022F00001206870002070BD2846FFF73CB802201E
:1023000068702068016821F0400101607047226414
:102310007888411E798070472DE9F04705468A4646
:10232000A86891461C464FF00108002618B140F2FB
:10233000BF4100F018F905F14407387E012808BFB5
:10234000022000F00E8187F81880FEF7F7FB7A7EF6
:10235000012A234609D06968B1F5827F02BFA968C6
:102360000029042A01D00226F6E0BAF1000F18BFB6
:10237000B9F1000F00D00CB90126EDE0797E0429F7
:102380001CBF05217976FE61C5F840907C803C80B9
:10239000C5F838A0EC87AC87BE60FE6040F20172E1
:1023A000E968914238BF022C04D329684C6824F4B0
:1023B000805403E029684C6844F480544C602968D8
:1023C0000C68640603D40C6844F040040C60D5F833
:1023D0000CC06968089C944543D3002918BF012BA1
:1023E00009D1A96B2B680A88DA60A96B8A1CAA63D9
:1023F000E98F4A1EEA878146E88F002804BF788863
:1024000000284ED02968886882070FD5E88F0028F9
:1024100018BFB8F1000F09D0A86B0288CA60B04697
:10242000A86B811CA963E88F411EE9872968886829
:10243000C2070BD5788848B1C868296C08804FF06E
:102440000108286C821C2A64FFF762FFFEF776FB06
:10245000A0EB0900A042CFD314F1010FCCD003268A
:102460007AE0002918BF012B15D1A96B2A68EB8FE0
:10247000022B08D30988D160AA6B911CA963EA8F4B
:10248000911EE98707E00B781373A96B4A1CAA63B6
:10249000E98F4A1EEA878146E88F002804BF7888C2
:1024A000002850D02968886882071BD5E88F00284B
:1024B00018BFB8F1000F15D0A86BEA8F022A08D315
:1024C0000088C860A96B881CA863E98F881EE8870C
:1024D00007E002780A73A86B411CA963E88F411ECC
:1024E000E987B04629688868C2071FD57888E8B1AF
:1024F000286C7A88022A10D3C9680180286C821C53
:102500002A647888811E7980788802280CD228680D
:10251000416841F48051416006E0097B0170286CFC
:10252000421C2A64FFF7F4FE4FF00108FEF706FB99
:10253000A0EB0900A04203D314F1010FACD08EE749
:10254000002CA9D18BE728464A46214600F0AEF878
:1025500010B120200126F86101217976002038761B
:102560003046BDE8F087DFF80C00FEF704BF00003E
:102570000030014074580008003C00402DE9F04153
:10258000069F05460E4690461C46286881683140E5
:10259000B1420CBF01200020404531D014F1010FA1
:1025A000F3D0FEF7CBFAC01BA04201D2002CECD135
:1025B0002868416821F0E00141606868B0F5827FD9
:1025C0000BD1A868B0F5004F18BFB0F5806F04D1EB
:1025D0002868016821F040010160A86AB0F5005F39
:1025E00009D12868016821F4005101602868026857
:1025F00042F40052026005F15C0000F04BF800E08C
:102600000020BDE8F0812DE9F041069F064688468E
:1026100015461C463068816808EA0101A94236D097
:10262000B8F5C06F04BF002D007B14F1010FF1D08D
:10263000FEF784FAC01BA04201D2002CEAD1306818
:10264000416821F0E00141607068B0F5827F0BD1F4
:10265000B068B0F5004F18BFB0F5806F04D1306896
:10266000016821F040010160B06AB0F5005F09D156
:102670003068016821F4005101603068026842F45A
:102680000052026006F15C0000F004F800E0002057
:10269000BDE8F081012141700022027003207047E3
:1026A00000962B4600228021204667E77CB50D4628
:1026B0001646044600962B4600224FF4C051FFF701
:1026C000A2FF38B9FFF7ECFF20B900962B4600F0C7
:1026D0000CF808B100F001F876BD206E40F0200043
:1026E0002066032070470090642300224FF4C061ED
:1026F000204688E770B5040025D02168A269DFF87C
:102700003802DFF83832DFF83852DFF838623AB191
:10271000B1421CBFA94299420BD040F23F1106E0E2
:10272000B1421CBFA942994203D04FF4A271FEF7F7
:1027300022FE04F17005686808B900F022F800F084
:1027400016F8012801D1012070BD606A08B100F0BF
:102750002AF82068416821F4904100F001F815E062
:1027600041602068816821F02A018160704724203F
:10277000686020680168490849000160204600F04F
:10278000E3B800212970204601F088B800F004F871
:10279000BDE8704000F055BB2068016841F00101C0
:1027A000016020467047204600F057BA2DE9FC47EB
:1027B000054605F17004884660682028174699464A
:1027C0004BD1B8F1000F14BF002F012046D0207864
:1027D000012842D0012121700020E06021226260A6
:1027E00005F15006FEF7AAF9378082467780A8687F
:1027F000B0F5805F04BF286900281ABF4046002753
:10280000474680460DE02868B8F1000F12BF18F85F
:10281000011B37F8021BC1F3080101857088411EB6
:10282000718053467088CDF80090002807D00022B0
:102830008021284600F032FB0028E4D005E0002289
:102840004021284600F02AFB08B1032006E02020A2
:10285000606000212170002000E00220BDE8F687C2
:102860002DE9FC47054605F158070C46386A202833
:10287000164698465CD1002C14BF002E012058D07B
:10288000387E012854D00121397600207862222137
:102890003962FEF753F93E8081467E80FF21A868A9
:1028A000B0F5805F04D1286990B940F2FF110FE0C4
:1028B00018B9286960B17F2007E0B0F1805F06D1C8
:1028C000286908B97F2103E03F20B88001E000219A
:1028D000B980A868BE88B0F5805F04BF2869002869
:1028E0001ABF20464FF0000AA24604460CE02868B2
:1028F000808C002C19BF304004F8010B30402AF8BE
:10290000020B7988481E7880788858B1CDF800800D
:102910004B4600222021284600F0C0FA0028E6D0CD
:10292000032006E02020386200213976002000E0F4
:102930000220BDE8F6870000F8580008008000403B
:1029400000440040003801402DE9F04104460026D3
:102950006268DFF8C034DFF8C08400259A4203D3F0
:1029600040F62D3100F076F9A068B0F1805F1CBF11
:102970000028B0F5805F03D040F62E3100F06AF9F0
:102980002168DFF89874E068B94207D1002818BFC1
:10299000B0F5005F1BD040F6313116E0B0F5805F36
:1029A00018BF002809D0B0F5405F18BFB0F5005F30
:1029B00003D040F6353100F04DF9206A002818BFE9
:1029C000B0F5006F03D040F6363100F043F92069CE
:1029D00000281CBFB0F5806FB0F5C06F03D040F683
:1029E000393100F037F9616931F00C0000D119B9C3
:1029F00040F63A3100F02EF9A069002818BFB0F572
:102A0000807F09D0B0F5007F18BFB0F5407F03D0BC
:102A100040F63B3100F01EF9E069002818BFB0F520
:102A2000004F03D040F63C3100F014F92268DFF883
:102A3000F0031368A168034020690B4361690343F5
:102A4000E0690B43034313605168E06821F440518F
:102A500001435160BA42A1691CBF206A01439368D7
:102A6000DFF8C00323F4306319439160DFF8B83313
:102A7000DFF8B8139A4221D1096801F00301032954
:102A80002AD8DFE801F0025654580121E269B2F574
:102A9000004F4FF6F07740F0A88061B1012900F0B7
:102AA0007F80022900F07F80042900F081800829BE
:102AB00000F087808DE0FDF7AEFF7BE0DFF850335C
:102AC0009A4222D1096811F00C012ED0042930D08D
:102AD00008292CD00C292ED01021BA42D6D10F00B3
:102AE00006D0022908D0042927D0082928D0A4E03C
:102AF000FDF791FF002852D0626802EB4201884244
:102B000002D3130383421ED297E0BA42E4D109688C
:102B100011F4406109D0B1F5806F0AD0B1F5006FB2
:102B200005D0B1F5406F06D0D6E70021D5E70221E8
:102B3000D3E70421D1E70821CFE7FDF723FFD9E749
:102B40004FF40040D8E737B1022F0AD0042F0ED03F
:102B5000082F16D01BE0FDF75EFF00F075F87941F5
:102B60000AE0B34911EB520045EB050104E0FDF723
:102B700009FF00F069F86941002300F041FF0646B3
:102B800006E0530803F50003B3FBF2F600E001256D
:102B9000A6F54070A74988424FD22268D6604DE022
:102BA000FDF741FF06E06068A34901EB50010CE02E
:102BB000FDF7E8FE61684A0802EB4002B2FBF1F65D
:102BC00005E06068410801F58031B1FBF0F6B6B26E
:102BD00000E00125A6F11000B8422ED23740C6F31E
:102BE000420007432068C76028E041B1012909D0AD
:102BF00002290CD0042908D008290ED015E0FDF7D1
:102C00000AFF04E0FDF70FFF01E0FDF7BBFE61687E
:102C100000EB5100B0FBF1F605E06068410801F5FA
:102C20000041B1FBF0F6B6B200E00125A6F11000BC
:102C3000B84202D22168CE6000E001250020206663
:102C400060662846BDE8F0816268010E560816EB02
:102C5000002070474046FEF78EBB38B504466E4DE7
:102C6000626AB2F5807F03D340F6554100F0E6F882
:102C700094F82400C10710D5A06A002818BFB0F549
:102C8000003F03D040F65A4100F0D8F821684A6866
:102C9000A06A22F4003202434A6094F824008107BB
:102CA00010D5E06A002818BFB0F5803F03D040F689
:102CB000614100F0C3F821684A68E06A22F480327A
:102CC00002434A6094F82400410710D5206B002885
:102CD00018BFB0F5802F03D040F6684100F0AEF881
:102CE00021684A68206B22F4802202434A6094F8EB
:102CF0002400010710D5606B002818BFB0F5004F05
:102D000003D040F66F4100F099F821684A68606B83
:102D100022F4004202434A6094F82400C10610D510
:102D2000A06B002818BFB0F5805F03D040F6764155
:102D300000F084F821688A68A06B22F48052024374
:102D40008A6094F82400810610D5E06B002818BF33
:102D5000B0F5005F03D040F67D4100F06FF82168C8
:102D60008A68E06B22F4005202438A6094F82400DF
:102D7000410636D520682C4A90421CBF244988421F
:102D800003D040F6844100F059F8206C002818BFA9
:102D9000B0F5801F03D040F6854100F04FF8216860
:102DA0004A68206C22F4801202434A60216CB1F51B
:102DB000801F16D1606C002818BFB0F5001F09D025
:102DC000B0F5800F18BFB0F5C00F03D040F68A41B0
:102DD00000F034F821684A68606C22F4C0020243B3
:102DE0004A6094F82400010610D5A06C002818BF92
:102DF000B0F5002F03D040F6924100F01FF8216893
:102E00004A68A06C22F4002202434A6031BD0000EF
:102E10000044004081969800F85800080080004067
:102E2000F369FFEF0024F4000038014088100240ED
:102E3000000024F400FD0F000048E8012846FEF7DA
:102E40009ABAF8B5044604F170050020E8606FF006
:102E50007E47FDF773FE0646206801680A0708D51D
:102E60000097334600224FF40011204600F016F878
:102E700060B9206801684A070AD5009733460022E6
:102E80004FF48001204600F009F808B10320F2BD9C
:102E900020206860A86000202870F2BD2DE9F04174
:102EA000069C05460E4690461F462868C16931407B
:102EB000B1420CBF01200020404519D114F1010F8F
:102EC000F3D0FDF73BFEC01B844201D3002CECD1B4
:102ED0002868016821F4D071016000F00CF805F158
:102EE000700020214160816000210170032000E01A
:102EF0000020BDE8F08128688168490849008160A8
:102F00007047000038B50446FDF718FE14F1010FB4
:102F1000054602D0044988680419FDF70FFE401BDE
:102F2000A042FAD331BD00BF0000002000F0B6BEC1
:102F300000F092BE00F02EBF00F05ABFE0B500F0E6
:102F4000F002000142F00C0342F008028DF8052067
:102F50008DF8043040F00C0240F008000FE0E0B5BE
:102F600000F0F002000142F00D0342F009028DF87A
:102F700005208DF8043040F00D0240F009008DF876
:102F800007008DF8062064200090042301AA4E213A
:102F90000148FEF79BFE07BD3005002080B53320B9
:102FA000FFF7CCFF3220FFF7C9FF00F01DF8282003
:102FB000FFF7C4FF00F018F80120FFF7BFFF00F093
:102FC00013F80620FFF7BAFF00F00EF80C20FFF709
:102FD000B5FF00F009F80220FFF7B0FF00F004F899
:102FE000BDE802408020A9E73220FFF78BBF10B573
:102FF000044603E014F8010BFFF7B1FF2078002826
:10300000F8D110BD012099E701280EBF8039403169
:1030100041F08001C8B291E74AB1000011F8013BCC
:10302000521E00F8013B1CBF11F8013BF8E7704746
:10303000F0B542F21073984236D2C0F30325030B69
:10304000C0F30312EC181419062600F00F0016FB4B
:103050000400C0B20A2790FBF7F403EBC3073F1943
:1030600005EB85063744D219D2B20A2692FBF6F652
:1030700006EB4505EDB20A2795FBF7F707EB83034F
:103080004FF00A0CDBB2E64693FBFEFE0CFB1E3350
:103090000CFB14000B700CFB1755C8704D700CFB2B
:1030A00016228A700020F0BD0120F0BD2DE9FF41FD
:1030B0008379232B0C4660DAC17900295DD102782F
:1030C000417802EB012500958178C27801EB022658
:1030D00001964FF4E45701794079DDF804E0039359
:1030E00001EB002202924FF42472029E0099774372
:1030F00012FB03724FF4AD5000FB0E2242F210702F
:103100005118B1FBF0F8084642F21077009107FB26
:103110001800009041F6F75212FB038842F2185152
:1031200001FB068841F28D21062000FB0E8E2A202D
:10313000CDF804E03A46BEFBF2F207FB12EE11FBBB
:10314000032200FB0626029640F21910B6FBF7F1A7
:1031500010FB031307FB1166039339460296B3FB7A
:10316000F1F107FB1133CDF804E00393032600F0DF
:1031700008F8761EFBD5002000E0012004B0BDE871
:10318000F081B1005DF8260004F10C0249421144BF
:1031900080B24DE700F1010310F8011B11B110F8E6
:1031A000011BFBE7C01A7047002200F0BDBB70B5E1
:1031B0000D462C7834B970BD11F8013F1678B34232
:1031C00006D0401C214600F047FE28B101462A46A1
:1031D00012F8013F002BEFD170BD00002DE9F84F30
:1031E0000646DFF8B0233068DFF8ACA300251042B4
:1031F000A84602D1CB2100F0CAF93068DFF89C4321
:10320000010526D5F06BB0B1B0F5000F0ED0B0F5CA
:10321000400F15D0D32100F0BAF9F06B58B1B0F5DA
:10322000000F03D0B0F5400F09D010E0216841F441
:103230008031216004E0002100F0A6F905463DB987
:10324000E16FF06B21F440010143E16701E00125EA
:10325000A846306881033BD5306D002818BFB0F513
:10326000807F4FF0000909D0B0F5007F18BFB0F59E
:10327000407F03D04FF4A37100F089F9E06CC100E6
:103280000AD4E06C40F08050E0644FF00109E06C3B
:1032900000F0805000900098DFF80473386840F424
:1032A00080703860FDF74AFC83463868C10500F13C
:1032B000D280FDF743FCA0EB0B000328F5D30325D8
:1032C000A846B9F1000F03D0E06C20F08050E06414
:1032D0003078C10712D5306A002818BF012807D0FE
:1032E000032818BF022803D040F29B1100F04FF9C9
:1032F000E16F306A890840EA8101E1673178880727
:1033000012D5706A002818BF042807D00C2818BFEF
:10331000082803D040F2A51100F039F9E16F706A76
:1033200021F00C010143E1673178880615D5B06AB8
:10333000002818BFB0F5806F09D0B0F5406F18BFF6
:10334000B0F5006F03D040F2D91100F020F9E16F21
:10335000B06A21F440610143E1673168880515D501
:10336000706B002818BFB0F5802F09D0B0F5002F82
:1033700018BFB0F5402F03D04FF4F17100F007F9FA
:10338000E16F706B21F440210143E167316848052A
:1033900015D5B06B002818BFB0F5801F09D0B0F567
:1033A000001F18BFB0F5401F03D040F2E91100F034
:1033B000EEF8E16FB06B21F440110143E167317821
:1033C000480611D5F06A00281CBFB0F5805FB0F543
:1033D000005F03D040F2F11100F0D9F8E16FF06A1C
:1033E00021F440510143E1673168C80511D5306BC4
:1033F00000281CBFB0F5803FB0F5003F03D040F27D
:10340000092100F0C4F8E16F306B21F44031014331
:10341000E1673168880457D5306C002818BFB0F1D7
:10342000806F09D0B0F1006F18BFB0F1406F03D0CA
:1034300040F2222100F0ABF8E16F306C21F04061E6
:103440000143E167306CB0F1006F35D1206840F482
:103450008010206038E0002D7FF432AFDFF8EC52AE
:10346000286810F440701CBF316D88420BD028686A
:10347000296841F48031296020F440702A6822F4E0
:1034800080322A602860C0070FD5FDF757FB07463A
:103490002868810709D4FDF751FBC01B41F289312F
:1034A0008842F5D34FF003080BE72968306D21F40B
:1034B00040710143296004E7B0F1806F04D100F04E
:1034C00062F8010018BF80463068410326D5706C51
:1034D000002818BFB0F1806F09D0B0F1006F18BF9D
:1034E000B0F1406F03D04FF41A7100F050F8E16F63
:1034F000706C21F040610143E167706CB0F1006FC6
:1035000004D1206840F48010206007E0B0F1806FA3
:1035100004D100F038F8010018BF8046306841043B
:103520001BD5B06C00281CBFB0F1805FB0F1405FCC
:1035300003D04FF4227100F02AF8E16FB06C21F053
:1035400040510143E167B16CB1F1805F05D10221C7
:1035500000F01AF8010018BF8046306801040FD54A
:10356000F06C002818BFB0F1804F03D04FF42D71DC
:1035700000F00DF8E16FF06C21F080410143E1674C
:103580004046BDE8F28F0121301D00F00BB85046D7
:10359000FDF7F1BE63EF0600DC5500080C10024099
:1035A000007000402DE9F843064600253068DFF83A
:1035B000AC81002818BF01280C4607D0022818BF8C
:1035C000032803D040F64F3100F0D0F8706808B1FE
:1035D000082803D94FF4356100F0C8F8B0680838FE
:1035E0004F2803D340F6513100F0C0F8B069594973
:1035F000084202D0584A104203D040F6523100F03F
:10360000B5F83068524FF96811F0030F0DD0F96822
:1036100001F00301814237D1B0B3F8687168C0F39B
:103620000210401C884213D02EE0012804D02BD376
:10363000032823D01ED327E03A68910724D5FA68DF
:10364000716822F073021043491E40EA0110F860CD
:10365000386820F080603860FDF770FA814638687D
:10366000010113D5FDF76AFAA0EB09000328F6D390
:10367000032566E039684A05E1D405E039688A0324
:10368000DDD439684A03DAD401255AE08CB9F068F0
:10369000801E1E2803D340F6A53100F067F8396973
:1036A0002F48B2680140F06841EA022141EAC06156
:1036B00032E0012C18D13069022818BF042807D045
:1036C000062818BF082803D040F6C93100F04EF88C
:1036D00039692448B26801403069400841EA022152
:1036E000401E41EA405117E07069022818BF0428C3
:1036F00007D0062818BF082803D040F6DB3100F0B9
:1037000035F839691848B26801407069400841EAE3
:103710000221401E41EA40613961386840F0806012
:103720003860FDF70BFA04463868010105D4FDF74F
:1037300005FA001B0328F7D39AE73869B1690843F3
:1037400038612846BDE8F283000000009010024076
:103750000010024000001101FFFFEEFEDC550008E2
:10376000FF80FF07FF809FFFFF80FFF94046FDF7C6
:1037700002BE0000624881B0816841F001018160B1
:10378000816801F0010100910099026842F08052C5
:103790000260006800F080500090009801B070470F
:1037A00081B000685749884209D15748026842F4FD
:1037B00080520260006800F480500090009801B0D0
:1037C000704710B586B000F094F821684F488142E8
:1037D00020D14F4C216841F002012160C0212068B6
:1037E00000F002000090122200984A4801910292D3
:1037F00001210391032204210591049201A9FDF7FF
:103800003FFFE06840F40010E060E06800F4001062
:103810000090009806B010BD10B5FFE786B00446D2
:10382000142200216846FDF704FF21683A488142CE
:103830002DD13748416941F480514161416901F41A
:10384000805105910599026842F001020260E02171
:10385000006800F001000590022205980091019295
:1038600000210291032205210491039200F011F836
:10387000102100910122002102910391019200F098
:1038800008F8012210214FF09040FEF72BF806B007
:1038900010BD69464FF09040FDF7F2BE10B586B0FE
:1038A00000F027F821681D48814220D1184841695D
:1038B00041F480414161416901F4804100910099E6
:1038C000026842F0010202604FF4C061006800F03B
:1038D00001000090022200980191029200210391C0
:1038E000032207210591049201A9FFF7D3FF06B037
:1038F00010BD04461422002101A8FDF79ABE000065
:10390000581002400030024048100240005400406D
:103910004C100240000400480030014000380140D3
:1039200062F30F2262F31F42401810F0030308D025
:10393000C91A1FD3DB0748BF00F8012D28BF20F8A4
:10394000022D130030B414461546103928BF20E963
:103950003C00FAD8490728BF20E90C0048BF40F8CE
:10396000042D890028BF20F8022D48BF00F8012D42
:1039700030BC7047C91818BF00F8012DCB0728BF0D
:1039800000F8012D704700002DE9F04180460E46F9
:10399000144600251F2744B1082C06D0102C18BF50
:1039A000182C02D05F2100F025F83846471E28B1B8
:1039B00007F01F0026FA00F1CA07F6D5200007D04D
:1039C000082C13D0102C0ED0182C11D1072F0FD289
:1039D000D8F800004661816821F018010C4384602A
:1039E0002846BDE8F081082FF2D301E0102FEFD375
:1039F0000125F5E70148FDF7BEBC0000445400086E
:103A0000D3BBD9B1B2F5803F5BD2022A1ED98C4616
:103A1000B1FBF2F102FB11C31B0443EA1043B3FBF9
:103A2000F2FC02FB1C3380B240EA0343B3FBF2F02A
:103A300002FB103240EA0C4000237047022A05D9ED
:103A40008446B0FBF2F002FB10C270474AB105D1C8
:103A500000F0010249085FEA3000704700220023AD
:103A6000704700F005BA0B000200002100207047EB
:103A7000F7D3002200237047904271EB030CF2D37E
:103A800070B5B1FA81F4B3FA83F52C1BA340C4F1ED
:103A9000200532FA05F63343A2405FF00046E640C7
:103AA00002E05B085FEA3202841A71EB030524BF6F
:103AB000204629467641F4D302000B003000002155
:103AC00070BD70B5B1FA81F4B2FA82F5C4F1200488
:103AD0006419B4F12006DAD3B2405FF00044F44038
:103AE000002502E052085FEA3303C61A71EB020EAA
:103AF00024BF3046714664416D41F3D302000B0090
:103B00002000290070BD0000F8B50C460F2C86B0CF
:103B1000054604DB2821DFF8C802FDF72CFC01A8CC
:103B20000021017002A80F2100F0A4F900F088F82C
:103B3000322000900123DFF8AC6202AA01A93046CE
:103B4000FEF7EAFB07463220009004F00F0302AABA
:103B500029463046FEF7E0FB0446012200F071F8EA
:103B600000F06BF844EA070007B0F0BDFEB50FF2B5
:103B7000CC20DFF8706200788DF8050001A90020E4
:103B8000087000F05DF80024002510E0322000905D
:103B9000012301AA0DF105013046FEF7BDFB0443E8
:103BA0009DF8040000F008006D1C8DF80400EFB2D1
:103BB0009DF80400082801D0FE2FE7DB012200F069
:103BC00040F800F03AF8FE2FA8BF0124E0B2FEBD95
:103BD00070B50FF26C22DFF80C52127886B00446F2
:103BE0008DF804200F2102A800F044F900F028F815
:103BF00000F02CF800F01EF8064632200090022358
:103C0000224600F016F806432078802809D1637810
:103C10003BB13220009003F00F03A21C00F009F822
:103C20000643012200F00DF800F007F8304606B018
:103C300070BD02A92846FEF76FBB0A20FFF762B9E4
:103C4000002210214FF09040FDF74CBE3220009032
:103C5000012302AA01A9704718B50FF2E8121278E1
:103C600089B01E218DF8002001A800F003F9012180
:103C70006846FFF749FF012458B9FFF777FF40B9BD
:103C800001A8FFF7A5FF002802BF9DF804005528F2
:103C9000002420460AB010BD0000000078B50128BD
:103CA000C1B0514902D0022805D027E066A52E6890
:103CB000009601A806E000BF64A21368009301A863
:103CC00001F580714FF48072FFF7A6F90421684670
:103CD000FFF71AFF012478B9FFF748FF60B901A880
:103CE000FFF776FF002804BF9DF80400002803D1E9
:103CF0009DF8050000B90024204600E0012042B0F4
:103D000070BDF8B588B006460F46154600F03DF880
:103D100039463046FFF7F8FE8E2498BBFFF726FFA2
:103D200080BB6846FFF754FF60BB9DF80000287019
:103D3000802826D19DF80100032823DDC21E6A7069
:103D40000DF10201D2B2A81CFFF766F969780DF1F6
:103D50000200405C05F1FC0108706B786B44DA7876
:103D60004A706E786E4433798B7000EB0226697866
:103D7000A81C00F029F836B200B2864202D12C7895
:103D800000E00446204609B0F0BD1E21684600F060
:103D900071B8000070B500BF2DA3C2B00446D3E9CE
:103DA0000056684602AAC0E900560521FFF7A9FFA0
:103DB0009DF8092002A90A44911F0A6822604A68F6
:103DC000626042B070BD000080B50A4601460748F7
:103DD000FDF756FE80F47F4080F0FF0080B202BD08
:103DE000D8590008CC04002030510008800400207D
:103DF00000B585B01421FFF7C9FFFFF721FF10219F
:103E0000009101220192002102910222039269464F
:103E10004FF09040FDF734FC0122FFF712FF96208F
:103E2000FFF770F8FFF70CFF3220FFF76BF8012265
:103E3000FFF707FFFFF701FF05B000BD030000001B
:103E400002000000550000000202010D0202020003
:103E50000403260100000000C9B202788A421AB1A8
:103E60001CBF10F8012FF9E718BF002070470000B1
:103E700070470000002200F001B8000000B500BF4C
:103E8000130096469446103928BFA0E80C50FAD883
:103E90005FEA417C28BF0CC048BF40F8042BC9072B
:103EA00028BF20F8022B48BF00F8012B00BD0000FE
:103EB0002DE9F047054600F0EEF9000400F1AC8072
:103EC00000F0E9F940050CD500F0E1F94FF6FF30BC
:103ED00000F0D9F9284600F0CAFA0021284600F07F
:103EE000E6F900F0D8F9400405D500F0D0F94BF61A
:103EF000FF7000F0C8F900F0CEF9800405D500F09D
:103F0000C6F94DF6FF7000F0BEF905F5187400F023
:103F1000C2F9C00421D52968B1F840204FF6FB70E2
:103F20000240A1F840204FF6F7702968B1F8402010
:103F30000240A1F840202178012905D100202070FD
:103F40000021284600F023FB284600F0B0FA00F0DC
:103F50009EF94EF6FF7000F096F900F09CF900050E
:103F600010D500F088F94FF2FF7000F090F900F0E2
:103F70008AF900F078F900F08EF9C0045CBF284699
:103F800000F087FA00F087F900061CD52868B0F821
:103F900044204FF67F710A40A0F844202078002882
:103FA00040F0358100F05FF900F065F901202070E4
:103FB00028462968B1F85420920802F03C02626059
:103FC000012100F0E4FA25E1018809EA010141F448
:103FD0000041018005F124042868B0F850102279CE
:103FE00001EBC203C01800F202400088A169C0F3CF
:103FF000090020620844A0610021284600F02CFA44
:10400000207848B1E06938B92178286841F080010A
:10401000A0F84C1000212170286800F144010A88A2
:1040200013047FF54DAF0A8812F00F0440F68F7627
:1040300048F60F7961D1D206C6D50288130505F579
:10404000947414D5898900F006F9E288C3F3090352
:10405000E36105F50C7100F010FD286801880E4041
:1040600046F080060680284600F0E8F9D4E71104FF
:10407000D2D50288164046F0800606802868B0F83F
:10408000501000F0E8F8C3F30903002BE3611CBFF4
:10409000616900290AD0E28800F0EFFC6069E169FB
:1040A000014461612846002100F0CEF92868B0F88B
:1040B00050104118206901F2064120B9088848F2E1
:1040C000FF32104009E03E2805D24208C00748BF31
:1040D000521C900203E04009800240F40040088036
:1040E0004BF68F7228680188114081F4405141F4E9
:1040F000004141F0800101808EE730F824A05FEAA2
:104100000A4205EB44185AD530F824100E4046F008
:10411000800620F8246008F594762868317B69B918
:10412000B0F85010337801EBC30100F08CF832D0B6
:10413000F28871693B4600F0A0FC2CE031780B4618
:1041400030F8232053040DD5B0F8502002EBC10104
:10415000421802F202421788C7F30907002F0DD058
:10416000328907E0B0F8503003EBC10100F06BF882
:1041700004D072893B46716900F07FFC2968307871
:1041800031F8202048F68F731A4042F4004242F082
:10419000C00221F82020F1697918F1617269D21901
:1041A0007261B3693BB131698F4204D331782846DB
:1041B00000F0B9F803E03178284600F045F95FEAED
:1041C0000A6020D5296831F8242009EA020242F465
:1041D000004208F1280021F824202A680178B2F86A
:1041E000503003EBC1031A4402F2024212884369C1
:1041F000C2F30902C2611A4483694261002B284656
:1042000002D100F029F907E700F09CF804E72846FE
:1042100000F03FF900F03FF8800508D500F037F8CE
:104220004FF6FF5000F02FF8284600F01CF900F080
:1042300032F8C00505D500F02AF84FF6FF6000F00F
:1042400022F8BDE8F087421802F206421788C7F349
:104250000907002F7047227801EBC203C31803F24D
:1042600006431B8870472868B0F8401041F00401ED
:10427000A0F8401070472868B0F8401041F00801DD
:10428000A0F8401070470240A1F844207047296808
:10429000B1F844207047286800F0D9BB002084F8AA
:1042A000280210BD044694F828020128704710B572
:1042B000FFF7F8FF01D1022010BD00F006F884F8E6
:1042C0002410206800F0BDFBE8E7012084F82802F4
:1042D000704738B5054601F0070005EB40100C06A5
:1042E00047BF00F12804012000F59474002001F07C
:1042F0000701607021702261E370607808B1217855
:10430000E181022B04BF0020207195F828020128CA
:1043100001D1022032BD012085F8280221462868FB
:1043200000F058F952E010B501F0070400EB441416
:1043300004F5947401F007016261A3610022E26157
:1043400062700DE010B501F0070400EB441428344E
:104350006261A3610022012301F00701E261637041
:1043600021702146006800F05DFA002010BD38B5CC
:1043700005460C46696804F00700814201D201201D
:1043800032BD210605D505EB401000F128010122C0
:1043900004E005EB441000F5947100224A700120FE
:1043A000887004F007040C7095F82802012801D1E8
:1043B000022032BD012085F82802286800F0EBFABF
:1043C00024B9286805F50C7100F044FB002085F83D
:1043D000280232BD10B5044601F00F0362689A420C
:1043E00001D2012010BD00F013F80023837000F00B
:1043F00008F801D1022010BD00F019F800F0E4FA2D
:104400004CE701F00701017094F828120129704768
:1044100001F007000A0604EB401003D52830012301
:104420004370704700F5947000224270704701227B
:1044300084F82822014620687047000000F50C71BE
:10444000D0F8700200F03CBB00EB4112D0F87002D3
:10445000D2F83C2100F05EBB00EB4112D0F87002B4
:10446000D26B00F098BBD0F8700200F025BC10B5FC
:104470000446A068022818BFFCF77CFFD4F870023D
:10448000012100F008FCD4F87002BDE8104000F0F3
:10449000D9BB10B50446D4F8700200F0FFFBA06948
:1044A00020B14B48016841F00601016010BD10B514
:1044B0000446A06930B14648016821F00601016058
:1044C000FCF713FFD4F87002BDE8104000F0EEBB1B
:1044D00038B51C461346D0F898022246FFF7F9FE7D
:1044E000002518B102280CBF01250225284632BD3F
:1044F00010B5D0F89802FFF73AFF002418B102284F
:104500000CBF01240224204610BD10B5D0F898023B
:10451000FFF760FF002418B102280CBF0124022419
:10452000204610BDD0F8980201F07F02090600EB8A
:10453000421002D590F82A00704790F82A0170477F
:1045400010B5D0F89802FFF7B2FE002418B1022887
:104550000CBF01240224204610BD10B5D0F89802EB
:10456000FFF7F0FE002418B102280CBF012402243A
:10457000204610BD10B5D0F89802FFF7D4FE0024F5
:1045800018B102280CBF01240224204610BD38B502
:1045900004460F4D11B101290ED031BDA06928B1DB
:1045A000FCF7A3FE286820F006002860D4F870020B
:1045B000BDE8324000F07ABBD4F8700200F06EFB28
:1045C000A06918B1296841F00601296031BD0000D9
:1045D00010ED00E02DE9F0470B4602461C7832F85A
:1045E0002460DD7848F68F1100200E40032D0CD892
:1045F000DFE805F002080C0546F4007606E046F414
:10460000C06603E046F4806600E0012048F28005C1
:104610002E4322F8246048F68F7619780C4632F83B
:10462000247037403943294322F824104BF68F7702
:10463000197B93F800A000294CF2800C48F6BF7E4D
:1046400048F2C00862D1D9884FF6FE740C40597800
:104650000029B2F8501011441DD001EBCA0101F538
:1046600080610C80197832F82140640606D532F852
:104670002140264048EA060622F821601978DB78B6
:10468000012B32F821300EEA03030EBF1D4383F0E5
:1046900020031D43C2E001EBCA0A0AF2044AAAF849
:1046A0000040B2F850105418197804EBC10419698D
:1046B00004F2064431B9B4F800E048F2FF3101EAEF
:1046C0000E010CE03E2908D24FEA510EC90748BF3F
:1046D0000EF1010E4FEA8E2E03E04909890241F4E2
:1046E000004EA4F800E0197832F82140640406D5A1
:1046F00032F8214026404CEA060622F8216019785B
:1047000032F821301F4087F4405786E032F82A10F3
:10471000314041F4014141F0800122F82A10B2F801
:104720005010B3F808A05418197804EBC10404F52C
:1047300080644FF6FE7101EA0A012180B2F8501040
:104740001C78511801EBC409598909F204494FF644
:10475000FE742140A9F8001059781C78002932F81D
:1047600024102CD1490406D532F8241031404CEAEB
:10477000010122F82410197832F82140640606D588
:1047800032F82140344048EA040422F821401978E4
:1047900032F82140264048EA060622F821601978BE
:1047A00032F82140274087F440572F4322F82170E8
:1047B000197832F821300EEA03031D432EE0490434
:1047C00006D532F8241031404CEA010122F82410B9
:1047D000197832F82140640606D532F82140344079
:1047E00048EA040422F82140197832F82140264092
:1047F0004CEA060622F82160DC781978012C32F8A0
:1048000021400EEA040418BF84F020042C4322F84F
:104810002140197832F821301F403D4322F82150C1
:10482000BDE8F087F8B50E46054672783469B06980
:10483000012A48F2800748D1844232BF001B044657
:104840000020B061307B40B9F28800F099F800F0A8
:104850009BF800F2024004802EE03078C10035F869
:1048600020004206B5F85000284405D5091801F289
:1048700006410C80728904E0091801F202410C80A3
:10488000328900F07DF8707848F68F7140B9307841
:1048900035F82020114041F4004141F0C00109E009
:1048A000012809D1307835F82020114041F44041E9
:1048B00041F0800125F82010317835F8212048F6A4
:1048C000BF70024082F030024EE0844232BF001BD3
:1048D00004460020B0616009317B8302002943F463
:1048E000004304F001004FEA540C18D0AAB900F0BC
:1048F00040F801F202413CB9B1F800E0202262F335
:104900008F2EA1F800E008E03E2C05D2624600B1EF
:10491000521C92020A8000E00B807178A9B900F065
:1049200028F801F206412CB90A88202060F38F2272
:104930000A8011E03E2C06D208B10CF1010C4FEABE
:104940008C20088008E00B8006E0012904D100F0EB
:104950001BF800F2064004804BF68F70317835F872
:104960002120024082F44052174325F82170002094
:10497000F2BDB5F850103278691801EBC2017047EA
:104980007169A3B2284667E0B5F85000317828185D
:1049900000EBC100704710B50A78497830F8224022
:1049A000002948F2800305D048F6BF710C4084F01E
:1049B000100404E04BF68F710C4084F480542343C0
:1049C00020F82230002010BD30B50A7B002A36D1F5
:1049D0004A780C78002A30F8242048F2800348F600
:1049E0008F7516D0520608D530F82420154045F4AE
:1049F000004545F0C00520F82450CA78012A1ED091
:104A00000A7830F8224048F6BF710C4084F0200448
:104A100012E0520408D530F82420154045F44045F2
:104A200045F0800520F824500A7830F822404BF6F3
:104A30008F710C4084F44054234320F8223000202E
:104A400030BD11B98021A0F84C1000207047B0F89B
:104A5000440070470020704710B580185B1C00F5BB
:104A600080605B0807E00A784C7842EA0422891CDF
:104A700020F8022B5B1EF6D110BD10B5821802F58E
:104A80008062580806E032F8024B0C70240A4C7021
:104A9000891C401EF7D1D80744BF12880A7010BD88
:104AA00010B5D0F88C2202241AB11268904700B9D0
:104AB0000024204610BD80B5D0F88C22536807E151
:104AC00038B5044604F52075284600F0EBFA04F5E5
:104AD0001B7001210160428B017D426011F01F00BB
:104AE00003D002280BD005D30EE02946204600F063
:104AF000F3F80DE02946204600F016FA08E02946B2
:104B0000204600F03BFA03E001F0800100F040F89D
:104B1000002032BD38B5044610460A0004F51B7368
:104B200029D1196803291ED104F5A6714A680D68B8
:104B3000AA420BD2AD1A0D60954238BF2A460146F3
:104B400092B2204600F0DEFA002032BD196A0869F0
:104B500028B1187A032802D10969204688472046DF
:104B600000F0D8FAF0E70529EED100201860002106
:104B700000F00EF8E8E71A6A906930B1187A032855
:104B800003D1926920469047DEE7022032BD8021A2
:104B90002046FFF7ADBC38B504460800134604F5BF
:104BA0001B7543D12868022833D1226A616A914279
:104BB00007D2521A2262194692B2204600F09AFA9F
:104BC00011E0E269B2FBF1F001FB102090B98A42DA
:104BD00010D3686882420DD200220021204600F0E6
:104BE00089FA002068600023002200212046FFF798
:104BF000C1FC14E0296AC86828B1287A032802D1C8
:104C0000C96820468847FFF7C2FF204600F089FAAE
:104C100005E0042818BF002801D1FFF7B8FF287B62
:104C2000012804BF00212973002032BD2A6A50697F
:104C300030B1287A032803D1526920469047F3E720
:104C4000022032BD38B50446402300220021FFF780
:104C50003FFC04F5A270012140220160C2604023A4
:104C6000002280212046FFF733FC0120402104F57B
:104C70001B72A061616210720021116061600025E9
:104C8000506A156128B1126A61685368C9B220463A
:104C90009847002032BD01740020704700F51D7058
:104CA00004220178417002700020704700F51D70E9
:104CB000417801700020704780B500F51D710A78B9
:104CC000032A03D18969C96901B18847002002BD5F
:104CD0009847002002BD0000F8B500F046F904F541
:104CE0001D7608D0202818BF402821D1B2699368CA
:104CF0002046984713E16878092819D8DFE810F0B2
:104D0000EC000401C500FE00C50087000A00C500D4
:104D1000DA00A3006888010A012955D0022946D08B
:104D2000032918D006290ED0072902D00F2951D007
:104D3000ABE0207C0028FBD1B1690A6B6846904744
:104D4000072141704BE0207C0028F1D1B1694A6B0A
:104D50006846904743E0C0B20528E9D8DFE800F094
:104D6000211B150F09037269207C936969469847D6
:104D700035E07269207C5369694698472FE0726973
:104D8000207C13696946984729E07269207CD368C2
:104D90006946984723E07269207C93686946984782
:104DA0001DE07269207C53686946984717E0207CB3
:104DB000B1690028684602D1896A884701E0C96A5A
:104DC0008847022242700AE07269207C13686946B3
:104DD000984704E07269207CD36969469847BDF81A
:104DE000001081B1E988002910D0BDF80010EA88D0
:104DF000914288BF1146ADF800100146BDF8002071
:104E0000204600F06FF9E88800281BD185E0A888CB
:104E1000002804BFE888002837D16F88802F34D25B
:104E20003078032807F07F072FD0B7703946204627
:104E3000FFF786FB00F09FF8002F07BF01213170BC
:104E4000022030706BE0374F688838703978084638
:104E500002281AD23278022A1AD0032A23D131B971
:104E60000220307061602046FFF725FE55E0616842
:104E7000884252D0C9B22046FFF71DFE39786160E2
:104E80002046FFF70DFE022847D100F008F946E062
:104E9000002942D06060032030702046FFF700FEFA
:104EA0000228F2D039E000F0FAF839782046FFF70E
:104EB00002FE34E0E8880128E7D13178491E012953
:104EC00004D9891EE1D10122211D13E00020A06038
:104ED000012204F108010DE03078401E0228D4D8E8
:104EE000EA88022AD1D1B068012100B10321E16032
:104EF00004F10C01204600F0F5F810E06888012864
:104F00000DD10121B16008E03078401E0228BCD8E4
:104F10006A88012A03D10020B06000F02CF800203C
:104F2000F2BD0000FE05002038B500F01EF81CBFE1
:104F30002028402815D104F51D721078401E022843
:104F40000FD82B79022B0CD2926993682046984790
:104F50000146E888002808BF002904D100F00BF8BA
:104F600001E000F09DF8002032BD0D46044628788F
:104F700010F060007047204600F0CCB8F8B50A7811
:104F80000446087912F0600504F51D7308D0202D41
:104F900018BF402D66D19A6993682046984763E010
:104FA00002F06002202A05D19A6993682046BDE884
:104FB000F44018474A787AB3012A11D0032A51D114
:104FC0001B78022B12D0032B4CD14A880ABB002835
:104FD00018BF80281DD0C988D9B900F05CF818E046
:104FE0001A78022A02D0032A0AD03BE0002818BF10
:104FF000802837D000F04FF8802100F04DF833E0E2
:105000004A888ABB10F07F0103D001462046FFF793
:105010007CFAFFF7B0FF27E0142600F07F021B7830
:105020007243A718022B07F5A07500F0800202D08A
:10503000032B0FD016E0002818BF802812D10AB128
:1050400007F114050020286002222946204600F0BE
:1050500049F809E000F00F0316FB03F6A3192AB183
:105060009A696AB900F01CF80020F2BDD3F8442117
:10507000002AF7D0002818BF802804D10020E2E7DA
:1050800007F11405F6E701462046FFF74BFA002822
:10509000D9D00120D7E701462046FFF729BA294693
:1050A000204614E010B50A7802704B7843708A7875
:1050B000CB7802EB032444800A794B7902EB03247A
:1050C00084808A79C97902EB0123C38010BD10B5B1
:1050D00004468021FFF70CFA2046BDE8104000216D
:1050E000FFF706BA80B513460222C0F86C22C361EE
:1050F000036201E080B513460A460021FFF72DFA4E
:10510000002002BD80B513460A460021FFF732FA9F
:10511000002002BD80B50421C0F86C1200230022DB
:10512000EBE780B50521C0F86C1200230022ECE704
:10513000FFFF000000000000000000000000000071
:10514000000000000000000000000000000000005F
:10515000000000000000000000000000000000004F
:10516000000000000000000000000000000000003F
:10517000000000000000000000000000000000002F
:10518000000000000000000000000000000000001F
:10519000000000000000000000000000000000000F
:1051A00000000000000000000000000000000000FF
:1051B00000000000000000000000000000000000EF
:1051C00000000000000000000000000000000000DF
:1051D00000000000000000000000000000000000CF
:1051E00000000000000000000000000000000000BF
:1051F00000000000000000000000000000000000AF
:10520000000000000000000000000000000000009E
:10521000000000000000000000000000000000008E
:10522000000000000000000000000000000000007E
:10523000FFFF000000000000000000000000000070
:10524000000000000000000000000000000000005E
:10525000000000000000000000000000000000004E
:10526000000000000000000000000000000000003E
:10527000000000000000000000000000000000002E
:10528000000000000000000000000000000000001E
:10529000000000000000000000000000000000000E
:1052A00000000000000000000000000000000000FE
:1052B00000000000000000000000000000000000EE
:1052C00000000000000000000000000000000000DE
:1052D00000000000000000000000000000000000CE
:1052E00000000000000000000000000000000000BE
:1052F00000000000000000000000000000000000AE
:10530000000000000000000000000000000000009D
:10531000000000000000000000000000000000008D
:10532000000000000000000000000000000000007D
:1053300041542B48545450504152413D2255524CF7
:10534000222C22687474703A2F2F74657374636F03
:105350006465657370383236362E3030307765626A
:10536000686F73746170702E636F6D2F7265636503
:10537000697665722E7068703F5549443D000000A3
:10538000000000000000000000000000000000001D
:10539000000000000000000000000000000000000D
:1053A00000000000000000000000000000000000FD
:1053B000000000000000000000000000453A5C46CC
:1053C00069726D776172655C436F6465546573746F
:1053D0004C3433324B435C52656164657253494DC2
:1053E0005C4669726D776172655F4C3433324B4352
:1053F0005C53544D3332437562655F46575F4C349E
:105400005F56312E31342E305C447269766572738A
:105410005C53544D33324C3478785F48414C5F4490
:1054200072697665725C5372635C73746D33326C4F
:105430003478785F68616C5F636F727465782E632F
:1054400000000000453A5C4669726D776172655CE8
:10545000436F6465546573744C3433324B435C5210
:10546000656164657253494D5C4669726D7761721E
:10547000655F4C3433324B435C53544D3332437588
:1054800062655F46575F4C345F56312E31342E30A3
:105490005C447269766572735C53544D33324C349C
:1054A00078785F48414C5F4472697665725C5372EC
:1054B000635C73746D33326C3478785F68616C5FF1
:1054C0006372635F65782E6300000000453A5C46B6
:1054D00069726D776172655C436F6465546573745E
:1054E0004C3433324B435C52656164657253494DB1
:1054F0005C4669726D776172655F4C3433324B4341
:105500005C53544D3332437562655F46575F4C348C
:105510005F56312E31342E305C4472697665727379
:105520005C53544D33324C3478785F48414C5F447F
:1055300072697665725C5372635C73746D33326C3E
:105540003478785F68616C5F6932635F65782E6379
:1055500000000000453A5C4669726D776172655CD7
:10556000436F6465546573744C3433324B435C52FF
:10557000656164657253494D5C4669726D7761720D
:10558000655F4C3433324B435C53544D3332437577
:1055900062655F46575F4C345F56312E31342E3092
:1055A0005C447269766572735C53544D33324C348B
:1055B00078785F48414C5F4472697665725C5372DB
:1055C000635C73746D33326C3478785F68616C5FE0
:1055D0007077725F65782E6300000000453A5C4684
:1055E00069726D776172655C436F6465546573744D
:1055F0004C3433324B435C52656164657253494DA0
:105600005C4669726D776172655F4C3433324B432F
:105610005C53544D3332437562655F46575F4C347B
:105620005F56312E31342E305C4472697665727368
:105630005C53544D33324C3478785F48414C5F446E
:1056400072697665725C5372635C73746D33326C2D
:105650003478785F68616C5F7263635F65782E632E
:1056600000000000453A5C4669726D776172655CC6
:10567000436F6465546573744C3433324B435C52EE
:10568000656164657253494D5C4669726D776172FC
:10569000655F4C3433324B435C53544D3332437566
:1056A00062655F46575F4C345F56312E31342E3081
:1056B0005C447269766572735C53544D33324C347A
:1056C00078785F48414C5F4472697665725C5372CA
:1056D000635C73746D33326C3478785F68616C5FCF
:1056E0006372632E63000000453A5C4669726D7711
:1056F0006172655C436F6465546573744C34333216
:105700004B435C52656164657253494D5C466972F6
:105710006D776172655F4C3433324B435C53544D4B
:105720003332437562655F46575F4C345F56312EA6
:1057300031342E305C447269766572735C53544D1B
:1057400033324C3478785F48414C5F4472697665F7
:10575000725C5372635C73746D33326C3478785F4F
:1057600068616C5F6770696F2E630000453A5C4644
:1057700069726D776172655C436F646554657374BB
:105780004C3433324B435C52656164657253494D0E
:105790005C4669726D776172655F4C3433324B439E
:1057A0005C53544D3332437562655F46575F4C34EA
:1057B0005F56312E31342E305C44726976657273D7
:1057C0005C53544D33324C3478785F48414C5F44DD
:1057D00072697665725C5372635C73746D33326C9C
:1057E0003478785F68616C5F6932632E6300000013
:1057F000453A5C4669726D776172655C436F6465BA
:10580000546573744C3433324B435C526561646548
:105810007253494D5C4669726D776172655F4C34B5
:1058200033324B435C53544D3332437562655F46AC
:10583000575F4C345F56312E31342E305C447269E0
:10584000766572735C53544D33324C3478785F48CC
:10585000414C5F4472697665725C5372635C737429
:105860006D33326C3478785F68616C5F7263632E7D
:1058700063000000453A5C4669726D776172655C51
:10588000436F6465546573744C3433324B435C52DC
:10589000656164657253494D5C4669726D776172EA
:1058A000655F4C3433324B435C53544D3332437554
:1058B00062655F46575F4C345F56312E31342E306F
:1058C0005C447269766572735C53544D33324C3468
:1058D00078785F48414C5F4472697665725C5372B8
:1058E000635C73746D33326C3478785F68616C5FBD
:1058F0007370692E63000000453A5C4669726D77EB
:105900006172655C436F6465546573744C34333203
:105910004B435C52656164657253494D5C466972E4
:105920006D776172655F4C3433324B435C53544D39
:105930003332437562655F46575F4C345F56312E94
:1059400031342E305C447269766572735C53544D09
:1059500033324C3478785F48414C5F4472697665E5
:10596000725C5372635C73746D33326C3478785F3D
:1059700068616C5F756172742E6300000E48016887
:1059800041F47001016000220C49086840F00100F8
:1059900008608A604FF480520B68094803400B602E
:1059A000CA6000200B68074A23F480230B608861DB
:1059B0004FF000611160704788ED00E00010024078
:1059C000FFFFF6EA08ED00E0000000000000000024
:1059D0000102030406070809453A5C4669726D77BF
:1059E0006172655C436F6465546573744C34333223
:1059F0004B435C52656164657253494D5C46697204
:105A00006D776172655F4C3433324B435C44756330
:105A1000614C69625C7372635C6E66636D313833CE
:105A20003374696E7A2E6300A0860100400D030076
:105A3000801A060000350C0040420F0080841E00D2
:105A400000093D0000127A000024F40000366E01C7
:105A50000048E801006CDC02704780B5FBF7A5FD4B
:105A6000FCE7FEE7FEE7FEE770477047704700F08F
:105A700009B80148FEF71CBA100000200120FBF70E
:105A80004ABF000002490A68886882180A607047A5
:105A90000000002010B5074979441831064C7C44B9
:105AA000163404E00A68081D114488470146A142E3
:105AB000F8D110BD2C0000004C0000004EF68851BB
:105AC000CEF20001086840F470000860BFF34F8F09
:105AD000BFF36F8F4FF00070E1EE100A70470000C7
