:020000040800F2
:10000000200A0020656B0008BD690008BF69000870
:10001000C7690008C9690008CB6900080000000032
:10002000000000000000000000000000CD69000892
:10003000CF69000800000000D1690008D3690008FA
:10004000D16B0008D56B0008D96B0008DD6B000888
:10005000E16B0008E56B0008E9690008E96B00083E
:10006000ED6B0008F16B0008F56B0008F96B0008F8
:10007000FD6B0008016C0008056C0008096C0008A5
:100080000D6C0008116C0008156C0008196C000854
:100090001D6C0008216C0008256C0008296C000804
:1000A0002D6C0008316C0008356C0008396C0008B4
:1000B0003D6C00080000000000000000416C0008DA
:1000C000456C00080000000000000000496C0008BA
:1000D000000000004D6C0008516C0008000000009A
:1000E000556C0008596C000800000000000000007A
:1000F0000000000000000000000000000000000000
:100100000000000000000000000000005D6C00081E
:100110000000000000000000616C0008656C000831
:10012000696C00086D6C0008716C0008756C000843
:10013000796C0008000000000000000000000000D2
:100140007D6C0008816C0008856C0008DB69000884
:10015000896C00088D6C0008916C0008956C000893
:10016000996C00089D6C0008A16C0008000000005C
:10017000A56C0008A96C0008000000000000000049
:10018000AD6C0008B16C0008B56C00082DE9FE4F9D
:100190000400002C02D1012000F001BC20680028DE
:1001A00009D0207810F03F0F05D14FF4CF71DFF860
:1001B000480A01F022F9DFF82C7A3D6815F00C05A9
:1001C000DFF82C8AD8F8009019F003092078C006CF
:1001D00040F1FA80A069002808D0A069012805D064
:1001E00040F2A711DFF8100A01F007F9E069B0F555
:1001F000807F05D34FF4D471DFF8FC0901F0FDF8DE
:10020000206A002826D0206A102823D0206A2028BF
:1002100020D0206A30281DD0206A40281AD0206AB9
:10022000502817D0206A602814D0206A702811D076
:10023000206A80280ED0206A90280BD0206AA0283F
:1002400008D0206AB02805D040F2A911DFF8A8092B
:1002500001F0D3F8002D04D00C2D78D1B9F1010FA5
:1002600075D1DFF87CA9DAF80000800704D5A06911
:10027000002801D1012092E3DAF80000000704D53C
:10028000DAF8000010F0F00005E0DFF86809006817
:10029000000910F0F000216A88421ED2206A00F0A6
:1002A0003BFD002801D0012079E3DAF8000050F08E
:1002B0000800CAF80000DAF8001031F0F001206AF6
:1002C0000143CAF80010DFF8440A016831F47F41A5
:1002D000E26951EA022101601DE0DAF8000050F005
:1002E0000800CAF80000DAF8001031F0F001206AC6
:1002F0000143CAF80010DFF8140A016831F47F41A5
:10030000E26951EA02210160206A00F005FD00283F
:1003100001D0012043E300F071FCDFF8F4193A68E2
:10032000C2F30312895C11F01F01C840DFF8B8184E
:100330000860DFF8B808006801F060F88DF8000088
:100340009DF8000000283FD09DF8000027E3A06939
:10035000002826D0DFF88878386850F0010038602F
:1003600001F07CF806003868800706D401F076F8C2
:10037000801B0328F7D3032011E3386850F00800EE
:100380003860396831F0F001206A01433960DFF8E4
:100390007C09016831F47F41E26951EA0221016080
:1003A00012E0DFF83C78386840084000386001F01F
:1003B00055F806003868800706D501F04FF8801B15
:1003C0000328F7D30320EAE22078C00766D56068E7
:1003D00000280DD06068B0F5803F09D06068B0F5A6
:1003E000A02F05D040F21121DFF80C0801F005F82C
:1003F000082D04D00C2D0CD1B9F1030F09D1DFF871
:10040000E0070068800349D56068002846D10120D4
:10041000C5E26068B0F5803F06D1DFF8C407016827
:1004200051F48031016018E06068B0F5A02F0AD166
:10043000DFF8AC07016851F480210160016851F4D4
:100440008031016009E0DFF89807016831F48031FC
:100450000160016831F480210160606800280ED0DD
:1004600000F0FCFF0600DFF878070068800315D471
:1004700000F0F4FF801B6528F5D303208FE200F025
:10048000EDFF0600DFF858070068800306D500F08E
:10049000E5FF801B6528F5D3032080E220788007E4
:1004A00063D5E068002809D0E068B0F5807F05D00A
:1004B0004FF41171DFF8400700F09FFF20692028FA
:1004C00005D340F24521DFF8300700F096FF042DF8
:1004D00004D00C2D16D1B9F1020F13D1DFF80007AB
:1004E0000068400504D5E068002801D1012056E2EB
:1004F000DFF81808016831F0F851226951EA026109
:10050000016032E0E06800281CD0DFF8D47638685B
:1005100050F48070386000F0A1FF06003868400594
:1005200006D400F09BFF801B0328F7D3032036E29C
:10053000DFF8D807016831F0F851226951EA026109
:10054000016012E0DFF89876386830F48070386027
:1005500000F084FF06003868400506D500F07EFFF5
:10056000801B0328F7D3032019E22078000734D535
:100570006069002808D06069012805D040F2852113
:10058000DFF8740600F039FF6069002812D0DFF848
:100590006476386850F00100386000F05FFF0600B4
:1005A0003868800719D400F059FF801B0328F7D35F
:1005B0000320F4E1DFF83C763868400840003860FA
:1005C00000F04CFF06003868800706D500F046FFB3
:1005D000801B0328F7D30320E1E12078400740F196
:1005E0008F800027A06800280BD0A068012808D0C1
:1005F000A068052805D04FF43671DFF8FC0500F03F
:10060000FCFEDFF8A0A7DAF80000C0000DD4DAF88D
:10061000000050F08050CAF80000DAF8000010F036
:1006200080500190019801200700DFF87CB7DBF8CB
:100630000000C00513D4DBF8000050F48070CBF844
:10064000000000F00BFF0600DBF80000C00506D438
:1006500000F004FF801B0328F6D303209FE1A0686D
:10066000012806D1DFF84407016851F0010101605B
:1006700017E0A06805280AD1DFF83007016851F0BB
:1006800004010160016851F00101016009E0DFF837
:100690001C070168490849000160016831F0040144
:1006A0000160A068002810D000F0D8FE0600DFF836
:1006B000FC060068800719D400F0D0FE801B41F2D0
:1006C00089318842F3D3032069E100F0C7FE0600B8
:1006D000DFF8D8060068800708D500F0BFFE801B51
:1006E00041F289318842F3D3032058E13800C0B287
:1006F000012805D1DAF8000030F08050CAF8000077
:100700002078800634D5606A002808D0606A012805
:1007100005D040F23D31DFF8E00400F06EFE606A83
:10072000002812D0DFF88876386850F00100386071
:1007300000F094FE06003868800719D400F08EFEA1
:10074000801B0328F7D3032029E1DFF8647638689B
:1007500040084000386000F081FE060038688007DD
:1007600006D500F07BFE801B0328F7D3032016E19B
:10077000A06A00280BD0A06A012808D0A06A02282D
:1007800005D040F26631DFF8700400F036FEA06A52
:10079000002800F003810C2D00F0CE80A06A022812
:1007A00040F0A780E06A00280ED0E06A01280BD054
:1007B000E06A022808D0E06A032805D04FF45C7193
:1007C000DFF8340400F019FE206B002802D0206B03
:1007D000092805D340F27131DFF81C0400F00DFE4A
:1007E000606B082802D3606B572805D340F2723142
:1007F000DFF8040400F001FEA06B022802D3A06B16
:10080000202805D34FF45D71DFF8EC0300F0F5FD0F
:10081000E06B02280ED0E06B04280BD0E06B0628BA
:1008200008D0E06B082805D040F27631DFF8C80325
:1008300000F0E3FD206C02280ED0206C04280BD0C1
:10084000206C062808D0206C082805D040F27731AB
:10085000DFF8A40300F0D1FDDFF884A3DAF800008C
:1008600030F08070CAF8000000F0F8FD0700DAF8F8
:100870000000800106D500F0F1FDC01B0328F6D36F
:1008800003208CE0D8F80010DFF828050140E06A6A
:100890000143206B401E51EA0011606B51EA0021B8
:1008A000E06B4008401E51EA4051206C4008401E59
:1008B00051EA4061A06B51EAC061C8F80010DAF853
:1008C000000050F08070CAF80000D8F8000050F026
:1008D0008070C8F8000000F0C1FD0600DAF80000E2
:1008E00080015BD400F0BAFD801B0328F6D30320FF
:1008F00055E0DFF8EC72386830F0807038603868A6
:10090000000105D4D8F8000080088000C8F8000075
:10091000D8F80010DFF8A0040140C8F8001000F07B
:100920009DFD06003868800138D500F097FD801BDA
:100930000328F7D3032032E0A06A012801D1012067
:100940002DE0D8F80000814619F00300E16A8842E2
:1009500022D119F07000216B491EB0EB011F1BD191
:1009600019F4FE40616BB0EB012F15D119F07840FE
:10097000A16BB0EBC16F0FD119F4C000E16B490856
:10098000491EB0EB415F07D119F0C060216C4908E6
:10099000491EB0EB416F01D0012000E00020BDE80E
:1009A000FE8F2DE9F04104000D00002C01D1012043
:1009B00013E12068002802D02068102805D340F2F7
:1009C0002E41DFF8340200F018FD002D0DD0012D6E
:1009D0000BD0022D09D0032D07D0042D05D040F2F5
:1009E0002F41DFF8140200F008FDDFF8D0733868FB
:1009F00010F00700A8420BD23868C008C000284396
:100A00003860386810F00700A84201D00120E4E007
:100A10002078C0074FD5606800280DD06068012895
:100A20000AD06068022807D06068032804D040F22A
:100A30004641714800F0E1FC6068032805D1684830
:100A40000068800119D40120C7E06068022805D140
:100A500063480068800310D40120BEE0606800286D
:100A600005D15F480068800707D40120B5E05C48E5
:100A70000068400501D40120AFE0DFF86881D8F8B4
:100A800000108908890060680143C8F8001000F070
:100A9000E5FC0600D8F8000010F00C006168B0EB2F
:100AA000810F08D000F0DAFC801B41F289318842C6
:100AB000F0D3032091E02078800726D5A068002895
:100AC0001CD0A068802819D0A068902816D0A068F3
:100AD000A02813D0A068B02810D0A068C0280DD0DE
:100AE000A068D0280AD0A068E02807D0A068F02825
:100AF00004D040F2A241404800F07FFC39490A6826
:100B000032F0F002A06802430A60386810F0070073
:100B100085420BD23868C008C00028433860386866
:100B200010F00700A84201D0012056E020784007CD
:100B30001ED5E068002814D0E068B0F5806F10D0B2
:100B4000E068B0F5A06F0CD0E068B0F5C06F08D0D9
:100B5000E068B0F5E06F04D040F2C141264800F0F3
:100B60004CFC20490A6832F4E062E06802430A6003
:100B7000207800071FD52069002814D02069B0F51F
:100B8000806F10D02069B0F5A06F0CD02069B0F54F
:100B9000C06F08D02069B0F5E06F04D04FF49961C0
:100BA000154800F02AFC0F48016831F460512269B1
:100BB00051EAC201016000F021F85549094A126862
:100BC000C2F30312895C11F01F01C8400649086096
:100BD0000648006800F012FCC0B2BDE8F0810000D9
:100BE0000010024008100240080000200000002011
:100BF0000C10024094100240786600082DE9F04184
:100C000000260020DFF8B811096811F00C01DFF8A8
:100C1000B4C1DCF8007017F00307002903D00C29D9
:100C20001AD1012F18D1DFF8A0E1DEF800805FEAC9
:100C3000087806D4DFF8DCE0DEF800E0CEF3032E1F
:100C400003E0DEF800E0CEF3031E604E56F82E609F
:100C500000290CD130000AE0042903D1DFF870E14B
:100C6000704604E0082902D1DFF868E170460C29DB
:100C70002DD1DCF800E01EF0030E73469E46BEF157
:100C8000020F03D0BEF1030F03D005E0DFF840E10F
:100C900003E0DFF840E100E0B646DCF80020C2F3F4
:100CA0000212521C1500DCF80020C2F3062202FBDF
:100CB0000EFEBEFBF5F2DCF800C0CCF3416C1CF17B
:100CC000010C5FEA4C0C6446B2FBF4FC6046BDE8E4
:100CD000F08141480068704780B5FFF7FAFF3F494F
:100CE000374A1268C2F30222895C11F01F01C84022
:100CF00002BD80B5FFF7EDFF3849314A1268C2F3F3
:100D0000C222895C11F01F01C84002BD04100240DC
:100D1000546B0008941002407CB504000025214E5D
:100D20003068C00003D500F09FFB01000FE0306881
:100D300050F080503060306810F080500090009883
:100D400000F092FB0100306830F080503060B1F567
:100D5000007F09D1812C15D3A12C02D302200500DC
:100D600010E0012005000DE0812C02D303200500D6
:100D700008E0802C02D10220050003E0702C01D194
:100D8000012005000D480268D208D2002A43026003
:100D9000006810F00700A84201D0012000E0002008
:100DA00076BD0000581002400070004090100240D4
:100DB000981002408C809D01FFFFEEFE0020024053
:100DC000081002400C100240001002400C6A00089B
:100DD0000024F40000127A0008000020C06B000814
:100DE0002DE9F8419FB0002500F096FB00F0CCF90A
:100DF00000F06CFA00F023FA00F03EFA00F0B2FACC
:100E000000F092FA00F0ABFBDFF8940500F0BBF8BD
:100E10000024012C38DAA8A641F288373A003100C4
:100E2000A6A000F0CCF80028F3D00A2000F0B8FB10
:100E30003A003100DFF86C0500F0C1F80028E8D076
:100E40000A2000F0ADFB3A003100DFF85C0500F04D
:100E5000B6F80028DDD00A2000F0A2FB3A003100ED
:100E6000DFF8480500F0ABF80028D2D03A00310096
:100E7000DFF83C0500F0A3F80028CAD00A2000F0F3
:100E80008FFB01200400C4E703A8DFF828157022B7
:100E900000F0AAFB6846DFF8201591E84C0080E8D6
:100EA0004C0000F052FB0028EED1012000F046FB80
:100EB0000028E9D1DFF80465300000F04AFB802803
:100EC000E2D10020F071DFF8F8743900300000F052
:100ED00046FC00280ED1002005002800C0B21028D2
:100EE00008DA2800C0B2385C30302900C9B2785422
:100EF0006D1CF2E7102239000DF1590000F0DBFC07
:100F00000A2269460DF1690000F0D5FC03A800F043
:100F10003AF869A741F288384246390003A800F040
:100F20004EF800281DD00A2000F03AFB4246390056
:100F3000DFF8900400F043F8002812D00A2000F0F7
:100F40002FFB42F210718FA000F0BAF8002808D0F1
:100F50000A2000F025FB42463900DFF86C0400F05F
:100F60002EF80A2000F01CFB42463900DFF8580436
:100F700000F025F8300000F0ECFA872884D0322009
:100F800000F00EFBF6E710B50400200000F0B0FC06
:100F90004FF47A73020092B22100DFF8300400F0BF
:100FA0002BFD10BD10B50400200000F0A1FC0021B5
:100FB000814203DA00226254491CF9E710BD2DE991
:100FC000F34F81B0140000250026DFF804743800C8
:100FD000FFF7E8FF00F042FA804600F03FFA814652
:100FE000019800F085FCDFF8ECA34FF47A7302005F
:100FF00092B20199504600F0FFFC0FF2CC2B5846FC
:1010000000F076FC4FF47A73020092B259465046D3
:1010100000F0F2FCDFF8C0B34FF47A7301225946B6
:10102000504600F056FD002807D000F017FAB0EB4C
:1010300008008442EED200203BE000F00FFA804628
:101040009BF800003100C9B27854761C00F006FA13
:10105000B0EB0800A04223D24FF47A730122594624
:10106000504600F036FD002809D19BF80000310001
:10107000C9B27854761C00F0F1F98146E6E700F039
:10108000EDF9B0EB09006528E0D30299380001F0D2
:1010900094F9002802D00120050001E0002005009D
:1010A0002800C0B20028B5D03800FFF76CFF280038
:1010B00040B2BDE8FE8F00004F4B000041540000DD
:1010C0002DE9F14F0C0000250026C14F3800FFF735
:1010D00069FF00F0C3F9804600F0C0F98146DFF8EF
:1010E000F4A2DFF8F4B24FF47A7301225946504665
:1010F00000F0EFFC002807D000F0B0F9B0EB0800DA
:101100008442ECD200203BE000F0A8F980469BF836
:1011100000003100C9B27854761C00F09FF9B0EBA2
:101120000800A04223D24FF47A7301225946504658
:1011300000F0CFFC002809D19BF800003100C9B2B3
:101140007854761C00F08AF98146E6E700F086F9CB
:10115000B0EB09006528E0D30099380001F02DF9C3
:10116000002802D00120050001E000200500280031
:10117000C0B20028B3D03800FFF705FF280040B206
:10118000BDE8F28F3230300000B5ABB04422002110
:1011900005A801F028F914220021684601F023F97E
:1011A0005422002116A801F01EF9222005904FF4C8
:1011B0008070089001200E901020099002200F905E
:1011C0000220109001201190082012900720139007
:1011D000022014900220159005A8FEF7D7FF0028E2
:1011E00001D000F009F90F200090032001900020A9
:1011F0000290002003900020049003216846FFF72E
:10120000D0FB002801D000F0F7F842F2030016905E
:1012100000201E9000201F900020269016A801F0AC
:10122000EDF8002801D000F0E7F84FF4007000F06E
:1012300021F9002801D000F0DFF82BB000BD80B507
:101240006648674901600121017141F22101816015
:101250000821C160012141714FF6FF710161202118
:101260004161802181610121016201F06DFC002852
:1012700001D000F0C1F801BD80B55A485A4901605B
:101280004FF482714160002181604FF4E061C160E0
:1012900000210161002141614FF400718161282129
:1012A000C1610021016200214162002181620721A8
:1012B000C162002101630021416301F073FD002838
:1012C00001D000F099F801BD0D0A000080B586B08C
:1012D0001422002101A801F086F84448016851F069
:1012E00004010160016811F0040100910099016896
:1012F00051F001010160016811F0010100910099B4
:10130000016851F002010160016811F002010091D1
:101310000099016851F080010160006810F08000C0
:101320000090009807B000BD80B52A4830490160A0
:101330004FF416514160002181600021C1600021FD
:1013400001610C214161002181610021C161002105
:1013500001620021416200F0E7FA002801D000F0AC
:101360004BF801BD80B51948224901604FF4165170
:101370004160002181600021C160002101610C21D8
:101380004161002181610021C161002101620021D0
:10139000416200F0C9FA002801D000F02DF801BD2B
:1013A000B06B0008AC6A0008CC6A0008346B000817
:1013B000746B000898680008806B00080C06002019
:1013C000FC050020446B00088C6B0008F40400202E
:1013D000800200207404002018060020D805002098
:1013E0000030024074050020003001404C100240E3
:1013F00000440040003801407047704738B5040091
:1014000000251349086800281DD04FF47A70096838
:10141000B0FBF1F00F490968B1FBF0F002F0FBF806
:1014200000280DD1102C08D2002221005FF0FF30DF
:1014300002F0CAF80848046007E00120050004E053
:101440000120050001E0012005002800C0B232BDE6
:10145000040000200800002000000020014800686F
:10146000704700BF14060020DFF89800006810F4F1
:10147000C060704738B50500B5F5007F07D0B5F5F9
:10148000806F04D0A821DFF88000FFF7B6FFB5F524
:10149000007F26D1DFF86C00016811F4C061B1F55E
:1014A000007F2CD0016831F4C06151F400710160FB
:1014B000DFF85800016832204143DFF85400B1FBE7
:1014C000F0F0401C0400DFF84C000168490503D52A
:1014D000002C01D0641EF6E7006840050FD50320FC
:1014E0000EE0DFF82000016811F4C061B1F5806FF3
:1014F00005D0016831F4C06151F4806101600020C1
:1015000032BD000000700040F065000808000020B7
:1015100040420F001470004010B50024032002F078
:101520003EF80020FFF76AFF002802D001200400E7
:1015300001E002F089F82000C0B210BD10B504002F
:101540002000C0B202F0A3FA10BD80B502F020FA6C
:1015500002BD10B50400200002F00DFB10BD80B5E7
:1015600002F050FB01BD30B4002513E050F8042B0D
:10157000D30744BFA9F101039A18091F042942F8AF
:10158000045BFAD213468C0744BF15809B1CC90725
:1015900048BF1D7050F8041B0029E7D130BC7047CC
:1015A00070B50400FFF75AFF0500260016F1010F81
:1015B00002D0044800688619FFF750FF401BB04274
:1015C000FAD370BD0400002062B38B0708D0521E0E
:1015D00011F8013B00F8013B00F024808B07F6D1A5
:1015E000830740F0208000BF103A07D330B4B1E841
:1015F0003810103AA0E83810F9D230BC530724BF95
:10160000B1E80810A0E8081044BF51F8043B40F8C6
:10161000043BD20724BF31F8022B20F8022B44BF31
:101620000B7803707047121F17D35B0009D151F874
:10163000043B20F8023B1B0C121F20F8023BF6D2A1
:101640000BE051F8043B00F8013B1B0A20F8023B79
:101650001B0C121F00F8013BF3D238BF121D521EA3
:1016600024BF11F8013B00F8013BF8D87047F8B5EA
:101670000200100080B242F2107398426DD212F054
:101680000F008DF800006B46C2F303105870100075
:1016900080B2001210F00F009870100080B2000BA2
:1016A000D870D8789C7820185C78041906259DF8A5
:1016B000000005FB04048DF800409DF800000A249A
:1016C00090FBF4F49DF800000A2590FBF5F605FB6D
:1016D00016008DF800005D78D878092610FB0640CA
:1016E0009E78052716FB070045195D7058780A2576
:1016F00090FBF5F558780A2690FBF6F706FB1700E5
:1017000058709878400050FA85F0987098780A26BA
:1017100090FBF6F698780A2790FBF7FC07FB1C0075
:101720009870D878800050FA86F0D870D8780A2758
:1017300090FBF7F7D8785FF00A0C90FBFCFE0CFBEF
:101740001E00D870D87808709878487058788870DB
:101750009DF80000C870002000E00120F2BD2DE9D6
:10176000FF4104000D00A079232880F2A080E079D9
:10177000002840F09C80217862784FF480704243CA
:1017800052FA81F080B200906E46A178E2784FF470
:1017900080704243501880B27060217962794FF4B2
:1017A00080704243501880B2B060A179E2794FF462
:1017B00080704243501880B2F0600099F2684FF494
:1017C0002473B7684FF4E450474303FB0272736815
:1017D0004FF4AD5000FB032251180091009842F2E3
:1017E0001071B0FBF1F1009842F21072B0FBF2F30D
:1017F00002FB13000090F36841F6F75000FB03135F
:10180000B76842F2185000FB07337768062000FBE8
:1018100007337360706842F21073B0FBF3F37068C3
:10182000B0FBF2F702FB17007060F76841F28D2001
:1018300000FB0737D6F808C02A2000FB0C77B760FA
:10184000B06842F21077B0FBF7FCB068B0FBF2F77B
:1018500002FB1700B060F76840F2191000FB07C7E1
:10186000F760F06842F21077B0FBF7F7F068B0FB72
:10187000F2FE02FB1E02F2605FF00308404640B237
:10188000002812D4404640B27FF0030110FB01F063
:10189000284410F10C01404640B256F8200080B2B6
:1018A000FFF7E5FEB8F10108E8E7002000E00120BD
:1018B00004B0BDE8F08110B50446FFF785FE204670
:1018C00010BD30B40EE00268436802440830DC0703
:1018D00044BFA9F10104E31852F8045B43F8045B28
:1018E000091FF9D150F8041B0029ECD130BC704716
:1018F00000F10103810704D010F8011B820781B1B8
:10190000FAD10268A2F10131914311F0803104BF94
:1019100050F8042FF6E709BAB1FA81F100EBD100D3
:10192000401CC01A7047030210B50400002C01D1FE
:10193000012060E0A069002815D02068DFF8D812E7
:10194000884225D02068DFF8D412884220D0206851
:10195000DFF8CC1288421BD040F23F11DFF8C402FE
:10196000FFF74BFD14E02068DFF8AC1288420FD07F
:101970002068DFF8A81288420AD02068DFF8A01299
:10198000884205D04FF4A271DFF89802FFF735FDC9
:10199000606F002805D1002084F87000200001F05D
:1019A000BFFE24206067206800684008400021686E
:1019B0000860200000F038F9012801D101201AE068
:1019C000606A002802D0200000F07FFB2068406899
:1019D00030F49040216848602068806830F02A0028
:1019E000216888602068006850F001002168086064
:1019F000200000F079FC10BD2DE9FC4706000D0029
:101A000017009846706F202860D1002D03D0380051
:101A100080B2002801D1012059E096F87000012819
:101A200001D1022053E0012086F870000020F06709
:101A300021207067FFF712FD8146A6F85070A6F8C6
:101A40005270B068B0F5805F05D13069002802D1CE
:101A50000024AA4602E02C005FF0000AB6F852000B
:101A6000002820D0CDF800804B4600228021300095
:101A700000F06EFC002801D0032028E0002C08D1E3
:101A8000BAF80000C005C00D316808851AF1020AD5
:101A900003E0207831680885641CB6F85200401EC7
:101AA000A6F85200DAE7CDF800804B46002240212C
:101AB000300000F04DFC002801D0032007E020207A
:101AC0007067002086F87000002000E00220BDE86A
:101AD000F6872DE9F84F83460D0016001F00DBF84E
:101AE0007800202840F09580002D03D0300080B28F
:101AF000002801D101208DE09BF87000012801D160
:101B0000022087E001208BF870000020CBF87C00D9
:101B10002220CBF87800FFF7A1FC8046ABF8586094
:101B2000ABF85A60DBF80800B0F5805F0CD1DBF849
:101B30001000002804D140F2FF10ABF85C0027E051
:101B4000FF20ABF85C0023E0DBF8080000280BD195
:101B5000DBF81000002803D1FF20ABF85C0017E091
:101B60007F20ABF85C0013E0DBF80800B0F1805F89
:101B70000BD1DBF81000002803D17F20ABF85C000C
:101B800006E03F20ABF85C0002E00020ABF85C0010
:101B9000BBF85C90DBF80800B0F5805F06D1DBF89D
:101BA0001000002802D10024AA4602E02C005FF0B9
:101BB000000ABBF85A00002823D0009743460022B1
:101BC0002021584600F0C4FB002801D0032021E06A
:101BD000002C09D1DBF80000808C19EA0000AAF87B
:101BE00000001AF1020A06E0DBF80000808C19EA16
:101BF00000002070641CBBF85A00401EABF85A006D
:101C0000D7E72020CBF8780000208BF87000002068
:101C100000E00220BDE8F28F00380140004400409F
:101C200000800040106800082DE9F84F04000025EE
:101C300000265FF000086068DFF89016884205D340
:101C400040F62D31DFF88006FFF7D7FBA068B0F132
:101C5000805F0CD0A068002809D0A068B0F5805F34
:101C600005D040F62E31DFF86006FFF7C6FBDFF83F
:101C700060B6206858450DD1E06800282CD0E06897
:101C8000B0F5005F28D040F63131DFF83C06FFF7B1
:101C9000B4FB21E0E068B0F5805F10D0E068002878
:101CA0000DD0E068B0F5405F09D0E068B0F5005FA6
:101CB00005D040F63531DFF81006FFF79EFB206AAD
:101CC000002809D0206AB0F5006F05D040F6363103
:101CD000DFF8F405FFF791FB206900280DD020699B
:101CE000B0F5806F09D02069B0F5C06F05D040F61F
:101CF0003931DFF8D405FFF780FB606930F00C0064
:101D0000002802D16069002805D140F63A31DFF899
:101D1000B805FFF772FBA069002811D0A069B0F5E3
:101D2000807F0DD0A069B0F5007F09D0A069B0F523
:101D3000407F05D040F63B31DFF88C05FFF75DFBB7
:101D4000E069002809D0E069B0F5004F05D040F601
:101D50003C31DFF87405FFF750FBA16820690143AF
:101D600060690143E069014320680268DFF86405A7
:101D700002400A43206802602068426832F4405200
:101D8000E068024320684260D4F818902068584503
:101D900002D0206A50EA09092068806830F4306077
:101DA00059EA0000216888602068DFF8141588422D
:101DB00016D1DFF82405006810F00300002805D0D4
:101DC000022805D006D3032806D007E0012743E008
:101DD000022741E004273FE008273DE010273BE0D1
:101DE0002068DFF8E014884217D1DFF8EC040068BF
:101DF00010F00C00002806D0042808D0082804D0D1
:101E00000C2806D007E0002726E0022724E004275C
:101E100022E0082720E010271EE0206858451AD14C
:101E2000DFF8B404006810F44060002809D0B0F571
:101E3000806F0AD0B0F5006F05D0B0F5406F06D0C6
:101E400007E0002708E0022706E0042704E008274F
:101E500002E0102700E010272068584540F07F80FE
:101E60003800C0B2002806D0022808D004280AD0C2
:101E700008280CD00FE0FEF72FFF80460DE0DFF8BA
:101E80005C04804609E0FEF7B9FE804605E04FF4A9
:101E90000040804601E001200600B8F1000F00F08C
:101EA0000C81616803204143884505D361684FF484
:101EB00080504143414502D201200600FDE0380038
:101EC000C0B2002806D0022814D0042820D0082848
:101ED0002ED036E0FEF700FF02004FF480736068FA
:101EE00040080021E3FB02016268002301F0C2FE0A
:101EF000050028E0626852080023DFF8E4030021AF
:101F0000101859416268002301F0B4FE05001AE080
:101F1000FEF774FE02004FF48073606840080021F1
:101F2000E3FB02016268002301F0A4FE05000AE061
:101F30006068400810F500006168B0FBF1F0050032
:101F400001E001200600B5F5407F05D3B5F5801FFF
:101F500002D22068C560B0E001200600ADE0E06973
:101F6000B0F5004F5BD13800C0B2002808D001287E
:101F700012D002281CD0042825D008282FD038E001
:101F8000FEF7AAFE6168490811EB40016068B1FBE9
:101F9000F0F080B205002EE0FEF7ABFE6168490864
:101FA00011EB40016068B1FBF0F080B2050022E067
:101FB0006068DFF8301311EB50016068B1FBF0F09E
:101FC00080B2050017E0FEF719FE6168490811EBC1
:101FD00040016068B1FBF0F080B205000BE0606882
:101FE000400810F580306168B0FBF1F080B2050068
:101FF00001E001200600102D0ED3B5F5803F0BD275
:102000004FF6F0712940C5F3420001438A4650461D
:1020100080B22168C86050E0012006004DE0380021
:10202000C0B2002808D0012811D002281AD00428F4
:1020300022D008282BD034E0FEF74EFE616810EB6A
:1020400051006168B0FBF1F080B205002BE0FEF7B3
:1020500050FE616810EB51006168B0FBF1F080B296
:10206000050020E060689D4911EB50016068B1FBFC
:10207000F0F080B2050016E0FEF7C0FD616810EBDD
:1020800051006168B0FBF1F080B205000BE06068C0
:10209000400810F500406168B0FBF1F080B2050027
:1020A00001E001200600102D05D3B5F5803F02D2D6
:1020B0002068C56001E001200600002020660020A5
:1020C00060663000C0B2BDE8F28F10B50400606AEF
:1020D000B0F5807F04D340F655417B48FFF78DF97A
:1020E00094F82400C00713D5A06A002808D0A06A7D
:1020F000B0F5003F04D040F65A417348FFF77DF930
:102100002068416831F40031A06A014320684160D1
:1021100094F82400800713D5E06A002808D0E06A0C
:10212000B0F5803F04D040F661416748FFF765F99C
:102130002068416831F48031E06A014320684160E1
:1021400094F82400400713D5206B002808D0206B9A
:10215000B0F5802F04D040F668415B48FFF74DF999
:102160002068416831F48021206B01432068416080
:1021700094F82400000713D5606B002808D0606B2A
:10218000B0F5004F04D040F66F414F48FFF735F9E6
:102190002068416831F40041606B01432068416070
:1021A00094F82400C00613D5A06B002808D0A06BBB
:1021B000B0F5805F04D040F676414348FFF71DF943
:1021C0002068816831F48051A06B014320688160F0
:1021D00094F82400800613D5E06B002808D0E06B4B
:1021E000B0F5005F04D040F67D413748FFF705F9B0
:1021F0002068816831F40051E06B01432068816000
:1022000094F82400400640D520682D49884208D023
:1022100020682C49884204D040F684412A48FFF7C0
:10222000ECF8206C002808D0206CB0F5801F04D09A
:1022300040F685412448FFF7E0F82068416831F412
:102240008011206C014320684160206CB0F5801F34
:102250001BD1606C002810D0606CB0F5001F0CD052
:10226000606CB0F5800F08D0606CB0F5C00F04D082
:1022700040F68A411448FFF7C0F82068416831F4FD
:10228000C001606C01432068416094F8240000069E
:1022900013D5A06C002808D0A06CB0F5002F04D096
:1022A00040F692410848FFF7A8F82068416831F4E9
:1022B0000021A06C01432068416010BD00000000B7
:1022C00000380140004400401068000881969800E2
:1022D00000800040F369FFEF881002400024F40002
:1022E000000024F40048E80138B504000020E0674D
:1022F000FFF7B4F805002068006800070DD57FF0EF
:102300007E4000902B0000225FF40011200000F0BE
:102310001FF8002801D0032019E02068006840075A
:102320000DD57FF07E4000902B0000225FF48001ED
:10233000200000F00DF8002801D0032007E0202045
:1023400060672020A067002084F87000002032BD64
:102350002DE9F04105000E0090461F00069C2868FC
:10236000C0693040B04201D1012000E00020414668
:10237000C9B288421ED114F1010FF0D0FFF76EF8F8
:10238000C01B844201D3002CE9D12868006830F4D6
:10239000D070296808602868806840084000296873
:1023A0008860202068672020A867002085F87000DA
:1023B000032000E00020BDE8F08170B50D462C78C8
:1023C00034B970BD11F8013F1678B34206D0401CF5
:1023D000214601F067FD28B101462A4612F8013F67
:1023E000002BEFD170BD10B5044610460A460146D9
:1023F000204601F063FD204610BD55002DE9F84F41
:1024000005005FF0000800272868DFF8C4140842C0
:1024100004D1CB21DFF8BC04FEF7EFFF28680005EC
:1024200037D5E86B00280CD0E86BB0F5000F08D06A
:10243000E86BB0F5400F04D0D321DFF89804FEF725
:10244000DCFFE86B00280DD0B0F5000F03D0B0F52D
:10245000400F0DD00DE0DFF88004016851F48031A9
:10246000016008E00021281D00F040FA804602E0EB
:1024700001E0012080464046C0B2002808D1DFF8C4
:1024800060140A6832F44002E86B02430A6000E01C
:1024900047462868800340F190805FF00009286D6E
:1024A000002811D0286DB0F5807F0DD0286DB0F5D3
:1024B000007F09D0286DB0F5407F05D04FF4A3719F
:1024C000DFF81004FEF799FFDFF810A4DAF8000037
:1024D000C0000DD4DAF8000050F08050CAF80000B7
:1024E000DAF8000010F0805000900098012081463A
:1024F000DFF8F0B3DBF8000050F48070CBF8000098
:10250000FEF7ACFF0600DBF80000C00506D4FEF7BE
:10251000A5FF801B0328F6D3032080464046C0B2A7
:1025200000283FD1DFF8C0B3DBF8000010F44070A2
:102530000400002C15D0286D844212D0DBF8000076
:1025400030F440700400DBF8000050F48030CBF829
:102550000000DBF8000030F48030CBF80000CBF84E
:102560000040E0070FD5FEF779FF0600DBF800001A
:10257000800708D4FEF772FF801B41F28931884240
:10258000F4D3032080464046C0B2002808D1DBF8CF
:10259000001031F44071286D0143CBF8001002E0C7
:1025A000474600E047464846C0B2012805D1DAF860
:1025B000000030F08050CAF800002878C00719D514
:1025C000286A00280ED0286A01280BD0286A032820
:1025D00008D0286A022805D040F29B11DFF8F402E7
:1025E000FEF70BFFDFF8F8120A6892089200286ADB
:1025F00002430A602878800719D5686A00280ED03F
:10260000686A04280BD0686A0C2808D0686A082811
:1026100005D040F2A511DFF8BC02FEF7EEFEDFF8B0
:10262000C0120A6832F00C02686A02430A60287815
:1026300080061CD5A86A002811D0A86AB0F5806F62
:102640000DD0A86AB0F5406F09D0A86AB0F5006F48
:1026500005D040F2D911DFF87C02FEF7CEFEDFF89C
:1026600080120A6832F44062A86A02430A6028684D
:1026700080051CD5686B002811D0686BB0F5802FE1
:102680000DD0686BB0F5002F09D0686BB0F5402F06
:1026900005D04FF4F171DFF83C02FEF7AEFEDFF833
:1026A00040120A6832F44022686B02430A602868CC
:1026B00040051CD5A86B002811D0A86BB0F5801F71
:1026C0000DD0A86BB0F5001F09D0A86BB0F5401F66
:1026D00005D040F2E911DFF8FC01FEF78EFEDFF8CD
:1026E00000120A6832F44012A86B02430A6028788C
:1026F000400618D5E86A00280DD0E86AB0F5805F7A
:1027000009D0E86AB0F5005F05D040F2F111DFF8BA
:10271000C401FEF772FEDFF8C8110A6832F44052B5
:10272000E86A02430A602868C00518D5286B0028AB
:102730000DD0286BB0F5803F09D0286BB0F5003F75
:1027400005D040F20921DFF88C01FEF756FEDFF8D4
:1027500090110A6832F44032286B02430A602868FC
:10276000800435D5286C002811D0286CB0F1806F1A
:102770000DD0286CB0F1006F09D0286CB0F1406F1B
:1027800005D040F22221DFF84C01FEF736FEDFF8DB
:1027900050110A6832F04062286C02430A60286CCB
:1027A000B0F1006F06D1DFF83001016851F48011FB
:1027B00001600DE0286CB0F1806F09D10121281D66
:1027C00000F094F880464046C0B2002800D047464A
:1027D0002868400335D5686C002811D0686CB0F1CA
:1027E000806F0DD0686CB0F1006F09D0686CB0F1EB
:1027F000406F05D04FF41A71DFF8D800FEF7FDFDE9
:10280000DFF8DC100A6832F04062686C02430A604C
:10281000686CB0F1006F06D1DFF8BC00016851F4BC
:10282000801101600DE0686CB0F1806F09D1012169
:10283000281D00F05BF880464046C0B2002800D05A
:1028400047462868400426D5A86C00280DD0A86CFF
:10285000B0F1805F09D0A86CB0F1405F05D04FF4B3
:102860002271DFF87000FEF7C8FDDFF874100A6807
:1028700032F04052A86C02430A60A86CB0F1805F4D
:1028800009D10221281D00F031F880464046C0B22F
:10289000002800D047462868000414D5E86C0028BA
:1028A00009D0E86CB0F1804F05D04FF42D71DFF8FE
:1028B0002400FEF7A2FDDFF828100A6832F08042FB
:1028C000E86C02430A603800C0B2BDE8F28F000035
:1028D00063EF0600006700080C1002405810024029
:1028E0008810024000700040901002402DE9F04135
:1028F00005000C000027286800280ED02868012851
:102900000BD02868022808D02868032805D040F694
:102910004F31DFF81002FEF770FD6868002802D022
:102920006868092805D34FF43561DFF8F801FEF730
:1029300064FDA868082802D3A868572804D340F685
:1029400051317848FEF759FDA8697749084203D00C
:10295000A8697649084204D040F652317148FEF722
:102960004CFD7349086810F0030F12D0086810F08E
:1029700003002A68904209D12868002806D0086818
:10298000C0F30210401C6968884232D00120070061
:102990002FE02868012804D01BD303280FD007D3C9
:1029A00017E064480068800701D40120070012E0A6
:1029B00060480068400501D4012007000BE05D4835
:1029C0000268920304D40068400301D40120070088
:1029D00001E0012007003800C0B2002809D10A68D0
:1029E00032F07302286802436868401E52EA0012FF
:1029F0000A603800C0B2002840F08F80DFF83481D0
:102A0000D8F8000030F08060C8F80000FEF726FD1E
:102A10000600D8F80000000106D5FEF71FFD801B58
:102A20000328F6D3032007003800C0B2002874D171
:102A3000002C16D1E868022802D3E868202804D3C5
:102A400040F6A5313748FEF7D8FC3B490A683B48B9
:102A50000240A86852EA0022E86852EAC0620A60AE
:102A60003EE0012C1ED1286902280DD028690428D7
:102A70000AD02869062807D02869082804D040F61B
:102A8000C9312848FEF7B9FC2B490A682C48024096
:102A9000A86852EA002228694008401E52EA4052C3
:102AA0000A601DE0686902280DD0686904280AD010
:102AB0006869062807D06869082804D040F6DB3129
:102AC0001848FEF79AFC1C490A681E480240A8688C
:102AD00052EA002268694008401E52EA40620A60D9
:102AE000D8F8000050F08060C8F80000FEF7B6FC8F
:102AF0000600D8F80000000106D4FEF7AFFC801BEA
:102B00000328F6D3032007003800C0B2002804D100
:102B100009490A68A86902430A603800C0B2BDE8E2
:102B2000F08100000067000800001101FFFFEEFEC9
:102B30000C1002400010024010100240FF80FF07FE
:102B4000FF809FFFFF80FFF910B50400002C01D12A
:102B5000012080E020684049884203D070213F482E
:102B6000FEF74BFC607F002804D100202077200076
:102B700000F081FD022060772079002806D02079BE
:102B8000012803D07E213548FEF737FC2079002844
:102B900009D13348216848612068806830F0180006
:102BA0002168886008E0E268A168200001F0BAF9B5
:102BB000002801D001204EE06079002806D060791D
:102BC000012803D090212548FEF717FC60790028E2
:102BD00004D15FF0FF302168086102E020692168BC
:102BE0000861606900280CD06069202809D06069FC
:102BF000402806D06069602803D09C211748FEF762
:102C0000FCFB2068816831F0600160690143206845
:102C10008160A069002806D0A069802803D0A02187
:102C20000E48FEF7EAFB2068816831F08001A06958
:102C3000014320688160206A012809D0206A0228A7
:102C400006D0206A032803D0A5210448FEF7D5FB4F
:102C500001206077002010BD003002405864000859
:102C6000B71DC1042DE9F04104000D0016005FF00E
:102C70000008022060772068806850F00100216819
:102C80008860206A012812D01FD3032801D015D3F1
:102C90001BE000200700B74205D255F82700216845
:102CA00008607F1CF7E72068006880460DE032006E
:102CB0002900200000F00EF8804606E032002900CE
:102CC000200000F053F88046FFE70120607740467F
:102CD000BDE8F081F0B40026B6EB920F14D211F8E3
:102CE000263001EB86077F783F0457EA036701EB44
:102CF00086039B7857EA032701EB8603DB781F43A3
:102D000003681F60761CE7E712F0030F2AD012F069
:102D10000303012B03D111F8263007683B7012F032
:102D20000303022B0AD111F8263001EB86077F78C6
:102D300057EA03273C0003681D002C8012F00303B0
:102D4000032B0FD111F8263001EB86077F7857EA65
:102D500003273C0003681D002C8001EB86039B7851
:102D600007683B7000680068F0BC704770B40024CE
:102D7000B4EB520F0BD231F82450660001EB46063B
:102D8000768856EA054605682E60641CF0E7D5078C
:102D900004D505682B0031F824501D8000680068B8
:102DA00070BC704710B50400002C01D101202EE149
:102DB0002068DFF83C1588420AD02068DFF8341517
:102DC000884205D04FF4A271DFF82C05FEF715FB01
:102DD0006068002809D06068B0F5827F05D040F2B5
:102DE0004511DFF81405FEF708FBA06800280DD098
:102DF000A068B0F5806F09D0A068B0F5004F05D08D
:102E00004FF4A371DFF8F004FEF7F7FAE068B0F5CD
:102E1000706F35D0E068B0F5606F31D0E068B0F524
:102E2000506F2DD0E068B0F5406F29D0E068B0F564
:102E3000306F25D0E068B0F5206F21D0E068B0F5A4
:102E4000106F1DD0E068B0F5006F19D0E068B0F5E4
:102E5000E06F15D0E068B0F5C06F11D0E068B0F554
:102E6000A06F0DD0E068B0F5806F09D0E068B0F5D4
:102E7000407F05D040F24711DFF87C04FEF7BDFA31
:102E8000A069B0F5007F0CD0A069002809D0A06926
:102E9000B0F5802F05D04FF4A471DFF85C04FEF785
:102EA000ACFA606B082808D0606B002805D040F2AF
:102EB0004911DFF84404FEF7A0FAE06900281AD0AF
:102EC000E069082817D0E069102814D0E0691828B4
:102ED00011D0E06920280ED0E06928280BD0E069E5
:102EE000302808D0E069382805D04FF4A571DFF804
:102EF0000804FEF782FA206A002808D0206A802899
:102F000005D040F24B11DFF8F003FEF776FA606A65
:102F1000002808D0606A102805D04FF4A671DFF8A9
:102F2000D803FEF76AFA606A002817D120690028E2
:102F300008D02069022805D040F24F11DFF8B8030D
:102F4000FEF75BFA6069002808D06069012805D0A7
:102F50004FF4A871DFF8A003FEF74FFA0020A0623B
:102F600094F85D00002805D1002084F85C00200062
:102F700000F092FB022084F85D002068006830F0C9
:102F800040002168086040F20172E068904201D37D
:102F9000002101E04FF48051E068B0F5706F05D07A
:102FA000E068B0F5E06F01D00020A062206B00283F
:102FB00007D1E068904202D30220206301E00120A3
:102FC00020636268A068024320690243606902438B
:102FD000A06910F400700243E0690243206A0243D2
:102FE000A06A024320680260A269120C12F0040277
:102FF000606A0243606B0243E06802430A43206850
:10300000426000202066012084F85D00002010BD91
:103010002DE9FE4F07000D00160098460C9C5FF04E
:1030200001095FF0000AB868002805D040F2BF41EE
:10303000DFF8C402FEF7E1F997F85C00012801D13E
:10304000022053E1012087F85C00FEF707FA83466F
:1030500097F85D008DF8000078680290ADF8028066
:10306000ADF804809DF8000001280DD00298B0F55D
:10307000827F06D1B868002803D19DF8000004289B
:1030800002D00220824629E1002D05D0002E03D077
:10309000404680B2002802D1012082461EE197F806
:1030A0005D00042802D0052087F85D000020386606
:1030B0003E64A7F84680A7F84480BD63A7F83E8029
:1030C000A7F83C800020F8640020386540F20170C9
:1030D000F968814203D2BDF80410022906D3396889
:1030E000496831F480513A68516005E039684968AF
:1030F00051F480513A68516039680968490605D42D
:103100003968096851F040013A681160F9688142F4
:1031100050D37868002803D0BDF80200012809D1F7
:10312000B86B00883968C860B86B801CB863F88FCA
:10313000401EF887F88F002804D1B7F84600002811
:1031400000F0C18038688068800711D5F88F0028AA
:103150000ED0B9F1010F0BD1B86B00883968C86087
:10316000B86B801CB863F88F401EF887002081463A
:1031700038688068C00711D5B7F8460000280DD020
:103180003868C068396C0880386C801C3864B7F8BF
:103190004600401EA7F8460001208146FEF75EF972
:1031A000B0EB0B00A042C5D314F1010FC2D0032035
:1031B000824693E07868002803D0BDF80200012819
:1031C00017D1F88F02280AD3B86B00883968C86015
:1031D000B86B801CB863F88F801EF88709E0B86B65
:1031E000007839680873B86B401CB863F88F401ECC
:1031F000F887F88F002803D1B7F84600002862D07E
:103200003868806880071FD5F88F00281CD0B9F176
:10321000010F19D1F88F02280AD3B86B00883968DA
:10322000C860B86B801CB863F88F801EF88709E00F
:10323000B86B007839680873B86B401CB863F88FB6
:10324000401EF8870020814638688068C0072CD56A
:10325000B7F84600002828D0B7F84600022816D351
:103260003868C068396C0880386C801C3864B7F8DE
:103270004600801EA7F84600B7F84600022812D282
:103280003868406850F48050396848600BE038680E
:10329000007B396C0870386C401C3864B7F8460005
:1032A000401EA7F8460001208146FEF7D7F8B0EB94
:1032B0000B00A04202D314F1010F01D1002C98D1D0
:1032C000032082460AE05A462100380000F0B8F890
:1032D000002803D00120824620203866012087F88C
:1032E0005D00002087F85C005046C0B2BDE8FE8F4C
:1032F00000300140003C0040886700082DE9F041A3
:1033000005000E0090461C00069F2868806830402B
:10331000B04201D1012000E000204146C9B28842FC
:1033200039D014F1010FF0D0FEF798F8C01BA0427D
:1033300001D2002CE9D12868406830F0E00029680B
:1033400048606868B0F5827F0DD1A868B0F5004F7D
:1033500003D0A868B0F5806F05D12868006830F008
:10336000400029680860A86AB0F5005F0BD12868A2
:10337000006830F40050296808602868006850F43C
:10338000005029680860012085F85D00002085F85C
:103390005C00032000E00020BDE8F0812DE9F04151
:1033A00006000F0014001D00DDF8188030688068EA
:1033B0003840A04241D0B7F5C06F03D1002C01D1F5
:1033C0003068007B15F1010FF0D0FEF747F8B0EB45
:1033D0000800A84201D2002DE8D13068406830F0E2
:1033E000E000316848607068B0F5827F0DD1B06848
:1033F000B0F5004F03D0B068B0F5806F05D13068EC
:10340000006830F0400031680860B06AB0F5005FD5
:103410000BD13068006830F40050316808603068C3
:10342000006850F4005031680860012086F85D00A3
:10343000002086F85C00032000E00020BDE8F08159
:103440007CB504000D00160000962B0000224FF4FE
:10345000C0512000FFF7A2FF002805D0206E50F0D9
:103460002000206603201FE000962B000022802110
:103470002000FFF743FF002805D0206E50F0200009
:103480002066032010E000962B0000224FF4C0615C
:103490002000FFF783FF002805D0206E50F02000A9
:1034A0002066032000E0002076BD000010B410F07C
:1034B0000703DFF8704122684FF6FF010A40DFF88A
:1034C000681151EA03210A43226010BC7047DFF8FB
:1034D00054010068C0F30220704710B4020052B2D9
:1034E000002A06D40A01DFF84431040064B21A55F8
:1034F00009E00A01DFF83831040064B214F00F0467
:10350000234403F8042C10BC704770B4030013F07C
:103510000704D4F10700052801D3042001E0D4F109
:103520000700251D072D01D2002500E0E51E01261C
:1035300016FA00F0401E0140A94016FA05F56D1E6E
:103540002A401143080070BC7047BFF34F8FDFF86B
:10355000D4100A6812F4E062DFF8D80002430A606F
:10356000BFF34F8F00BFFDE710B50400601EB0F140
:10357000807F01D3012011E0601EDFF8BC100860DD
:103580000F215FF0FF30FFF7A8FF0020DFF8AC103D
:1035900008600720DFF8A8100860002010BD10B5F3
:1035A0000400072C0CD0062C0AD0052C08D0042CC3
:1035B00006D0032C04D0A721DFF88800FDF71DFFFB
:1035C0002000FFF773FF10BD2DE9F04104000D004E
:1035D00016000027102E04D3BF21DFF86800FDF786
:1035E0000CFF102D04D3C021DFF85800FDF705FFB4
:1035F000FFF76DFF8046320029004046FFF785FF48
:103600000100200040B2FFF768FFBDE8F08180B5FF
:10361000FFF79BFF01BD10B504002000FFF7A4FFDA
:1036200010BD00000CED00E00000FA0500E400E031
:1036300018ED00E00400FA0514E000E018E000E0F6
:1036400010E000E0D063000881B06248016851F0EA
:1036500001010160006810F00100009000985E48D0
:10366000016851F080510160006810F080500090B6
:10367000009801B0704781B00168584A914209D161
:1036800057490A6852F480520A60096811F480515F
:103690000091009901B0704710B586B00400142263
:1036A00000216846FEF79FFE20684E49884235D1CA
:1036B0004848016851F480510160006810F480505E
:1036C000059005984848016851F0010101600068C3
:1036D00010F0010005900598E02000900220019074
:1036E00000200290032003900520049069465FF0BB
:1036F000904000F067FC1020009001200190002015
:1037000002900020039069465FF0904000F05AFC60
:10371000012210215FF0904000F0CCFD06B010BDFA
:1037200010B586B00400142200216846FEF75BFE47
:1037300020682E49884224D12648016851F48041EE
:103740000160006810F480400590059826480168E3
:1037500051F001010160006810F00100059005982A
:103760004FF4C060009002200190002002900320DE
:1037700003900720049069465FF0904000F022FC1F
:1037800026E020681A49884222D11348016851F482
:1037900000310160006810F400300590059812486F
:1037A000016851F001010160006810F0010005900E
:1037B00005980C2000900220019000200290032028
:1037C00003900720049069465FF0904000F0FAFBF8
:1037D00006B010BD60100240581002400030024098
:1037E00048100240003001404C10024000380140B7
:1037F00000440040F8B586B004000D002800C0B2B7
:103800000F2804DB2821DFF8D003FDF7F6FD0121A6
:10381000002201AE300000F051FB0F21002202AE69
:10382000300000F04BFB002210215FF0904000F0D0
:1038300041FDDFF8A87332200090012302AA01A9FC
:103840003800FFF7E5FB0600322000902B00DBB2CA
:1038500013F00F0302AA21003800FFF7D9FB07007D
:103860003743012210215FF0904000F023FD0A2031
:10387000FDF796FE3800C0B207B0F0BD3EB5DFF8E8
:10388000600300788DF805000121002201AC2000C2
:1038900000F014FB0024002210215FF0904000F0A3
:1038A00009FD00259DF80400082817D02800C0B2A3
:1038B000FE2813DA6D1C32200090012301AA0DF1BD
:1038C0000501DFF81803FFF7A3FB204304009DF870
:1038D000040010F008008DF80400E3E70122102135
:1038E0005FF0904000F0E6FC0A20FDF759FE28004A
:1038F000C0B2FE2801DB012004002000C0B23EBDA2
:10390000F8B586B00400DFF8DC0200788DF804001A
:103910000F21002202AD280000F0D0FA0022102171
:103920005FF0904000F0C6FCDFF8B052322000900B
:10393000012302AA01A92800FFF76AFB0600322032
:1039400000900223220002A92800FFF761FB070074
:103950003743207880280ED1607800280BD03220A1
:103960000090637813F00F03A21C02A92800FFF750
:103970004FFB38430700012210215FF0904000F018
:1039800099FC0A20FDF70CFE3800C0B207B0F0BD6C
:1039900018B589B0DFF8500200788DF800001E21BC
:1039A000002201AC200000F089FA012401216846C0
:1039B000FFF720FF00280ED1FFF760FF00280AD193
:1039C00001A8FFF79DFF002805D19DF804005528A8
:1039D00001D1002004002000C0B20AB010BD18B50B
:1039E000C1B06846DFF804120A68026001A8DFF877
:1039F00000124FF48072FDF7F7FD012404216846A0
:103A0000FFF7F8FE002812D1FFF738FF00280ED18B
:103A100001A8FFF775FF002809D19DF804000028D0
:103A200005D19DF80500002801D1002004002000E8
:103A3000C0B242B010BD18B5C1B06846DFF8B411CD
:103A40000A68026001A8DFF8B0114FF48072FDF738
:103A5000CBFD012404216846FFF7CCFE002812D1DB
:103A6000FFF70CFF00280ED101A8FFF749FF00283F
:103A700009D19DF80400002805D19DF80500002813
:103A800001D1002004002000C0B242B010BD10B52A
:103A900004002000C0B2012802D0022803D005E0B3
:103AA000FFF79DFF03E0FFF7C6FF00E0012010BD18
:103AB0002DE9F04788B004000D0016001E210022F9
:103AC0006F46380000F0FAF98E272900C9B22000AD
:103AD000FFF790FE002849D1FFF7D0FE002845D11E
:103AE0006846FFF70DFF002840D19DF800003070B8
:103AF0003078802838D168464178042936DB407810
:103B0000C01E707096F801800DF1020916F1020ACC
:103B1000424649465046FDF757FD684671780844CD
:103B2000807886F8FC00684671780844C07886F88A
:103B3000FD00684671780844007986F8FE0096F822
:103B4000FDA04FF4807196F8FC0001FB0A0A717821
:103B5000B01C00F031F85146020009B212B2914295
:103B600004D131780F0001E0307807003800C0B28E
:103B700008B0BDE8F0872DE9F041C2B00400684606
:103B80001E49D1E90023C0E9002302AA05216846A5
:103B9000FFF78EFF0500082602A89DF809100844CB
:103BA000871FA046320039004046FDF70DFD280072
:103BB000C0B242B0BDE8F08138B504000D002A0063
:103BC000D2B221000E48FFF74DF880F47F4090F00C
:103BD000FF0080B232BD0000686900087405002053
:103BE0002619000827190008FA230008C86B0008E6
:103BF000D0610008CC6B0008D0620008B86B0008E8
:103C0000D805002018B585B0142100226C4620008C
:103C100000F054F9002202215FF0904000F04AFBCE
:103C200002200090012001900020029002200390C9
:103C300069465FF0904000F0C5F9012202215FF073
:103C4000904000F037FB9620FDF7AAFC00220221ED
:103C50005FF0904000F02EFB3220FDF7A1FC012226
:103C600002215FF0904000F025FB0A20FDF798FC50
:103C700006B010BDBBBBE1B1B2F5803F80F07E80E5
:103C8000022A1ED98C46B1FBF2F102FB11C31B04C0
:103C900043EA1043B3FBF2FC02FB1C3380B240EA60
:103CA0000343B3FBF2F002FB103240EA0C40002366
:103CB0007047022A05D98446B0FBF2F002FB10C21D
:103CC00070474AB105D100F0010249085FEA3000AF
:103CD000704700220023704700F046BB0B00020033
:103CE000002100207047904271EB030CF6D3B3F52E
:103CF000803F2FD2F0B5B3FA83F7B1FA81F4A7F180
:103D00000F0E3D1B5340CEF1200602FA0EF2F34196
:103D10005340B5F10F0746D80F3C2C444140C4F145
:103D20002006A040F1414140B1FBF3F603FB161120
:103D3000A2FB0645001BA94102D2761E80185941FC
:103D400080EA010221FA0EF362FA0EF200215A40D3
:103D50003046F0BD30B4B1FBF3FC03FB1C11A2FBF9
:103D60000C45001BA94103D2ACF1010C801859414C
:103D700030BC02460B46604600217047B2F1807F9E
:103D800065D3F0B5B2FA82F7B1FA81F4C7F10F0644
:103D90003D1B22FA06F307F1110EF24120355A407D
:103DA000B5F10F07B8D94140C4F12006A040F14158
:103DB0004140B1FBF3FC03FB1C11A2FB0C45001BB3
:103DC000A94103D2BCF1010C801859410F2F12D325
:103DD0000F3FC90341EA5041B1FBF3F603FB161153
:103DE000A2FB0645D4EBC030A94102D2761E801852
:103DF000594146EACC3C07B34140C7F12006B840E0
:103E0000F1414140B1FBF3F603FB1611A2FB06455D
:103E1000001BA94102D2761E8018594180EA010296
:103E200021FA0EF3C7F1200462FA0EF20CFA07F041
:103E30005A402CFA04F13043F0BD80EA010221FA25
:103E40000EF3002162FA0EF260465A40F0BD8C4635
:103E5000B1FBF2F102FB11C31B0243EA1063B3FB97
:103E6000F2FC02FB1C331B024CEA002043EA106305
:103E7000B3FBF2FC02FB1C331B024CEA002043EABA
:103E80001063B3FBF2FC02FB1C331B024CEA002064
:103E900043EA1063B3FBF2FC02FB1C324CEA002045
:103EA00000237047C9B202788A421AB11CBF10F8C9
:103EB000012FF9E718BF00207047000062F30F22BE
:103EC00062F31F42401810F0030308D0C91A1FD331
:103ED000DB0748BF00F8012D28BF20F8022D130092
:103EE00030B414461546103928BF20E93C00FAD8F2
:103EF000490728BF20E90C0048BF40F8042D89007D
:103F000028BF20F8022D48BF00F8012D30BC7047B3
:103F1000C91818BF00F8012DCB0728BF00F8012DE4
:103F2000704700002DE9F04105000E001400002745
:103F30005FF01F08002C09D0082C07D0102C05D0EA
:103F4000182C03D05F211E48FDF757FA4046B0F108
:103F50000108002805D018F01F003100C140C80733
:103F6000F4D52000002817D008280FD0102807D03B
:103F7000182812D1B8F1070F01D3012007000EE075
:103F8000B8F1080F01D30120070008E0B8F1100FC5
:103F900001D30120070002E001E001200700380002
:103FA000C0B2002808D1286846612868806830F0CF
:103FB00018002043296888603800C0B2BDE8F0814D
:103FC000E06400082DE9F84F05000E000027B5F168
:103FD000904F10D0DFF8480385420CD0DFF844033F
:103FE000854208D0DFF84003854204D0B321DFF8D2
:103FF0003C03FDF702FA3068000404D03068000C7E
:104000000004002804D0B421DFF82003FDF7F5F9FF
:104010007068002834D07068012831D07068112889
:104020002ED0706802282BD07068122828D07068B3
:10403000DFF8FC12884223D07068DFF8F81288425B
:104040001ED07068DFF8F012884219D07068DFF86F
:10405000EC12884214D07068DFF8E41288420FD066
:104060007068DFF8E01288420AD07068032807D031
:1040700070680B2804D0B521DFF8B002FDF7BDF958
:10408000B06800280AD0B068012807D0B0680228BC
:1040900004D0B621DFF89402FDF7AFF93068F8409C
:1040A000002800F005815FF00108316818FA07F078
:1040B00001400C00002C00F0F9807068022802D04A
:1040C0007068122835D1B5F1904F10D0DFF850024A
:1040D00085420CD0DFF84C02854208D0DFF8480258
:1040E000854204D0C521DFF84402FDF786F9306926
:1040F000102804D3C621DFF83402FDF77EF938001A
:10410000C00805EB8000016A0F2217F00700C0B25B
:10411000800082409143326917F00700C0B28000EE
:10412000824011438B463800C00805EB8000C0F880
:1041300020B0D5F800A05FF003093800C0B24000FD
:1041400019FA00F03AEA000A317911F00301380057
:10415000C0B24000814051EA0A0AC5F800A0706868
:10416000012808D07068022805D07068112802D094
:10417000706812282BD1F06800280DD0F068012853
:104180000AD0F068022807D0F068032804D0DA21AA
:10419000DFF89801FDF731F9A9683800C0B2400096
:1041A00019FA00F08143F2683800C0B24000824042
:1041B0001143A960686818FA07F830EA08007268C5
:1041C000C2F30012BA4010438246C5F804A0D5F8E5
:1041D0000CB03800C0B2400019FA00F93BEA090BF4
:1041E000B1683800C0B24000814051EA0B0BC5F8FD
:1041F0000CB07068C00059D5DFF84C01016851F06F
:1042000001010160006810F0010000900098DFF8E3
:104210003C213800800852F820100F2317F00300CB
:10422000C0B2800083409943B5F1904F01D1002383
:104230000CE0DFF8EC00854201D1012306E0DFF855
:10424000E400854201D1022300E0072317F00300B8
:10425000C0B28000834019433800800842F8201023
:10426000DFF8EC201068A0437368DB0300D520431F
:104270001060DFF8E0201168A14373689B0300D54C
:1042800021431160344A1068A0437368DB0200D5F3
:10429000204310603149D1F800B03BEA040B72684A
:1042A000920201D554EA0B0BC1F800B07F1CF5E671
:1042B000BDE8F18F70B504000E001500300080B22B
:1042C000002804D14FF4D9711848FDF796F828005A
:1042D000C0B2002808D02800C0B2012804D040F2A3
:1042E000B3111248FDF789F82800C0B2002803D0A6
:1042F000300080B2A06102E0300080B2A06270BDE8
:1043000010B5040016480168220092B2114206D08E
:10431000210089B20160200080B200F023F810BDB6
:104320000004004800080048001C004868650008B8
:1043300000001110000021100000311000001210C8
:1043400000002210000032106010024008000140FE
:104350000004014004040140080401400C04014031
:1043600014040140704700007047F0B503000A00D4
:104370000020117833F8214048F68F110C40D17895
:10438000002905D0022906D009D3032904D009E069
:1043900054F4007408E007E054F4C06404E054F4FA
:1043A000806401E00121080048F2800555EA04011B
:1043B000167823F8261048F68F76117833F8217096
:1043C000374011780F432F43117823F82170117B68
:1043D000002940F0A8805178002941D01900B3F895
:1043E0005070CF19117817EBC10111F58061B2F847
:1043F00006C01FFA8CFC5FEA5C0C5FEA4C0CA1F86B
:1044000000C0117833F821108C461FFA8CFC5FEA4B
:104410004C6C0AD5177833F827703E4046F40046B6
:1044200056F0C006177823F82760D17801290CD000
:10443000117833F8216048F6BF710E4096F02006DF
:104440003543117823F8215041E1117833F8216088
:1044500048F6BF710E403543117823F8215036E1FC
:104460001900B3F85070CF19117817EBC10101F2A0
:104470000441B2F806C01FFA8CFC5FEA5C0C5FEAEC
:104480004C0CA1F800C01900B3F850C011EB0C0C93
:1044900011781CEBC10E0EF2064E116900290DD1E8
:1044A000BEF8007048F2FF310F40AEF80070BEF861
:1044B000001051F40041AEF8001013E011693E29DC
:1044C00009D211694908177CFF0700D5491C8F02E2
:1044D000AEF8007006E0116949098F0257F40047F1
:1044E000AEF80070117833F821100F00BFB27F04CE
:1044F0000AD5177833F827703E4046F4404656F008
:104500008006177823F82760117833F821604BF67E
:104510008F710E4096F4805696F40056354311780C
:1045200023F82150D3E0117833F82110314041F4C1
:10453000014151F08001177823F827101900B3F8D2
:104540005070CF19117817EBC10111F58061B2F8E5
:1045500008C01FFA8CFC5FEA5C0C5FEA4C0CA1F807
:1045600000C01900B3F850C011EB0C0C11781CEB13
:10457000C10101F20441B2F80AE01FFA8EFE5FEABF
:104580005E0E5FEA4E0EA1F800E05178002949D195
:10459000117833F821100F00BFB27F040BD51778C4
:1045A00033F82770374047F4404757F0800792F8B8
:1045B00000C023F82C70117833F821100F00BFB21F
:1045C0007F060BD5177833F82770374047F400473C
:1045D00057F0C00792F800C023F82C70117833F818
:1045E00021100E4046F4004656F0C006117823F81C
:1045F0002160117833F821604BF68F710E4096F4EC
:10460000805696F400562E43117823F821601178D5
:1046100033F8216048F6BF710E403543117823F816
:10462000215054E0117833F821100F00BFB27F04FD
:104630000BD5177833F82770374047F4404757F0C9
:10464000800792F800C023F82C70117833F82110FD
:104650000F00BFB27F060BD5177833F827703740AD
:1046600047F4004757F0C00792F800C023F82C70B9
:10467000117833F821100E4046F4404656F080067B
:10468000117823F82160D17801290CD0117833F802
:10469000216048F6BF710E4096F020062E43117837
:1046A00023F8216009E0117833F8216048F6BF71E2
:1046B0000E402E43117823F82160117833F82160E1
:1046C0004BF68F710E403543117823F82150C0B25C
:1046D000F0BDF8B505000E007078012840F0DA80D2
:1046E0003069B169884204D23469B069001BB06195
:1046F00002E0B4690020B061307B002811D12300B2
:104700009BB2F2887169280000F00DFA2800B5F814
:1047100050104018317810EBC10101F202410C80B9
:10472000A6E0307835F82000400640D529007078A2
:1047300000282DD12800B5F850208218307812EBCF
:10474000C00303F20643002C0CD1B3F800C048F2BA
:10475000FF3010EA0C0CA3F800C0188850F4004099
:10476000188014E03E2C0AD2200040085FEAC47C86
:1047700000D5401C5FEA802CA3F800C007E02000B1
:1047800040095FEA802C5CF4004CA3F800C00BE009
:104790007078012808D1B5F850000818317810EB6E
:1047A000C10101F206410C807089070037E0707882
:1047B000002825D12800B5F850104118307811EBA9
:1047C000C00202F20242002C09D1138848F2FF30E5
:1047D00003401380108850F4004010800FE03E2CFE
:1047E00007D220004008E30700D5401C8302138055
:1047F00005E020004009830253F4004313800CE0DD
:104800007078012809D12800B5F850104018317887
:1048100010EBC10101F202410C8030890700230036
:104820009BB23A0092B27169280000F07CF970786E
:1048300000280DD1307835F8201048F68F700140EF
:1048400041F4004151F0C001307825F820100FE00C
:10485000707801280CD1307835F8201048F68F7028
:10486000014041F4404151F08001307825F820109A
:10487000307835F8201048F6BF70014091F01001F3
:1048800091F0200141F4004151F08001307825F889
:104890002010B9E03069B169884204D23469B06946
:1048A000001BB06102E0B4690020B061307B0028D9
:1048B00025D12800B5F850104118307811EBC0020E
:1048C00002F20642002C09D1138848F2FF3003405F
:1048D0001380108850F4004010800FE03E2C07D267
:1048E00020004008E30700D5401C8302138005E048
:1048F00020004009830253F40043138073E0707872
:10490000002825D12800B5F850104118307811EB57
:10491000C00202F20242002C09D1138848F2FF3093
:1049200003401380108850F4004010800FE03E2CAC
:1049300007D220004008E30700D5401C8302138003
:1049400005E020004009830253F4004313800CE08B
:104950007078012809D12800B5F850104018317836
:1049600010EBC10101F202410C802900707800288F
:104970002DD12800B5F850208218307812EBC003F2
:1049800003F20643002C0CD1B3F800C048F2FF300C
:1049900010EA0C0CA3F800C0188850F400401880EE
:1049A00014E03E2C0AD2200040085FEAC47C00D507
:1049B000401C5FEA802CA3F800C007E020004009FB
:1049C0005FEA802C5CF4004CA3F800C00BE0707828
:1049D000012808D1B5F850000818317810EBC10152
:1049E00001F206410C80307835F820104BF68F70BC
:1049F000014091F4805191F4005141F4004151F093
:104A00008001307825F820100020F2BD020048789F
:104A100000280FD0087832F8203048F6BF700340E5
:104A200093F0100343F4004353F08003087822F816
:104A300020300EE0087832F820304BF68F700340BB
:104A400093F4805343F4004353F08003087822F832
:104A500020300020704710B40200087B00284ED19F
:104A60004878002826D0087832F82030180080B224
:104A700040060CD5087832F8204048F68F70044084
:104A800044F4004454F0C004087822F82040C87868
:104A9000012834D0087832F8203048F6BF7003403F
:104AA00093F0200343F4004353F08003087822F886
:104AB000203024E0087832F82030180080B240041A
:104AC0000CD5087832F8204048F68F70044044F442
:104AD000404454F08004087822F82040087832F8E6
:104AE00020304BF68F70034093F4805393F40053BF
:104AF00043F4004353F08003087822F8203000206C
:104B000010BC704702000800C0B2002802D180200B
:104B1000A2F84C00002070470100B1F84400704733
:104B20000200002070472DE9F04304009E461FFA62
:104B30008EFE1EF1010E5FEA5E0EA0468C4618FA4C
:104B400082F717F580677046002813D09CF8009014
:104B50004D461CF1010C9CF800905FEA09291FFAF0
:104B600089F959EA05094E463E80BF1C1CF1010C2B
:104B7000401EE9E7BDE8F0832DE9F04104001E0086
:104B8000B6B2760827008E4617FA82FC1CF5806CB8
:104B90003000002811D0BCF8008045461CF1020C02
:104BA0008EF800501EF1010EA8465FEA18288EF814
:104BB00000801EF1010E401EEBE75FEAC37804D5CA
:104BC000BCF8008045468EF80050BDE8F08100003A
:104BD00010B504002068FFF79FFF000402D52000F5
:104BE00000F015FA2068FFF797FF40050FD5206801
:104BF000B0F844104FF6FF3001402068A0F8441090
:104C0000200000F0FEFB0021200000F0C5F8206825
:104C1000FFF782FF400408D52068B0F844104BF637
:104C2000FF7001402068A0F844102068FFF774FF6F
:104C3000800408D52068B0F844104DF6FF7001409C
:104C40002068A0F844102068FFF766FFC00428D54C
:104C50002068B0F840104FF6FB7001402068A0F8C3
:104C600040102068B0F840104FF6F77001402068FF
:104C7000A0F8401094F86002012806D1002084F8C2
:104C800060020021200000F0EAFC200000F0DCFBC4
:104C90002068B0F844104EF6FF7001402068A0F87C
:104CA00044102068FFF738FF000520D52068B0F8D1
:104CB000400050F008002168A1F840002068B0F8DA
:104CC00044104FF2FF7001402068A0F844102068A3
:104CD000B0F8400050F004002168A1F840002068BE
:104CE000FFF71AFFC00402D4200000F09DFB2068EB
:104CF000FFF712FF00062FD52068B0F844104FF6DA
:104D00007F7001402068A0F8441094F860020028E9
:104D10001FD12068B0F8400050F004002168A1F8CD
:104D200040002068B0F8400050F008002168A1F869
:104D30004000012084F860022068B0F85400800828
:104D400010F03C00C4F864020121200000F087FC50
:104D500002E0200000F068FB2068FFF7DDFE800520
:104D60000BD52068B0F844104FF6FF500140206882
:104D7000A0F84410200000F03DFB2068FFF7CCFEB7
:104D8000C00508D52068B0F844104FF6FF60014018
:104D90002068A0F8441010BD38B504000D0094F848
:104DA0002802012801D102200DE0012084F8280208
:104DB00084F824502900C9B22068FFF7A3FE002020
:104DC00084F82802002032BD2DE9F843040088460B
:104DD00015001E0000274046C0B200060BD5404615
:104DE000C0B210F007004001204410F12809012052
:104DF00089F801000AE04046C0B210F00700400107
:104E0000204410F59479002089F8010018F007007B
:104E100089F80000280080B2C9F8100089F8036002
:104E200099F80100002803D099F80000A9F80E00B5
:104E30003000C0B2022802D1002089F8040094F8A2
:104E40002802012801D102200BE0012084F8280269
:104E500049462068FFF789FA002084F828023800C4
:104E6000C0B2BDE8F2832DE9F04104000D00160048
:104E70001F002800C0B210F007004001204410F5C8
:104E80009478C8F81460C8F818700020C8F81C009E
:104E9000002088F8010015F0070088F8000015F0E0
:104EA000070F04D141462068FFF713FC03E0414699
:104EB0002068FFF70EFC0020BDE8F0812DE9F041ED
:104EC00004000D0016001F002800C0B210F00700FB
:104ED0004001204410F12808C8F81460C8F8187080
:104EE0000020C8F81C00012088F8010015F0070018
:104EF00088F8000015F0070F04D141462068FFF73D
:104F0000E8FB03E041462068FFF7E3FB0020BDE833
:104F1000F08170B504000D0060682900C9B211F07D
:104F20000701884201D2012034E02800C0B2000607
:104F30000AD52800C0B210F007004001204410F14B
:104F400028060120707007E02800C0B2400120440C
:104F500010F59476002070700120B07015F00700F5
:104F6000307094F82802012801D1022012E00120BB
:104F700084F8280231002068FFF748FD15F0070F7C
:104F800004D114F50C712068FFF7CAFD002084F8E5
:104F90002802002070BD70B504000D006068290073
:104FA000C9B211F00F01884201D201202EE0280081
:104FB000C0B200060AD52800C0B210F007004001B8
:104FC000204410F128060120707009E02800C0B2CA
:104FD00010F007004001204410F594760020707016
:104FE0000020B07015F00700307094F828020128F6
:104FF00001D102200AE0012084F828023100206853
:10500000FFF729FD002084F82802002070BD2DE95B
:10501000F04704002068B0F84400000440F1BF816C
:105020002068B0F84400070017F00F00814648469A
:10503000C0B2002840F0D580380080B2C00634D419
:105040002068018848F60F70014051F40041206843
:10505000018014F1280005002068B0F8500029787C
:10506000C90009182068411801F20241088880B27D
:105070008005800DE8616869E9690844686100217C
:10508000200000F0A8F994F824000028C2D0A869F4
:105090000028BFD194F8240050F080002168A1F8C6
:1050A0004C00002084F82400B4E714F59470050047
:1050B000206800888046404680B2000523D52068DD
:1050C000B0F850002978C90009182068411801F289
:1050D0000641088880B28005800DE861EB699BB2CB
:1050E000EA8814F50C712068FFF746FD20680188F6
:1050F00040F68F70014051F080012068018020004F
:1051000000F050F986E7404680B2000482D520685E
:10511000018840F68F70014051F0800120680180C5
:105120002068B0F850002978C90009182068411893
:1051300001F20641088880B28005800DE861E869C7
:10514000002811D0686900280ED0EB699BB2EA886C
:1051500069692068FFF710FD6869E96908446861BA
:105160000021200000F027F920682168B1F85010D4
:10517000411801F206408246286900280DD1BAF88C
:10518000002048F2FF300240AAF80020BAF80000E0
:1051900050F40040AAF8000013E028693E2809D224
:1051A000286940082A7CD20700D5401C8202AAF850
:1051B000002006E028694009820252F40042AAF861
:1051C0000020206802884BF68F70024092F48052D3
:1051D00092F4005242F4004252F0800220680280B1
:1051E00018E720684946C9B230F821008046404699
:1051F00080B2000440F1978020684946C9B230F877
:10520000211040F68F70014051F0800120684A461D
:10521000D2B220F822104846C0B24001204410F516
:1052200094700500287B002819D12068B0F8500040
:105230002978C90009182068411801F20641088838
:105240008005800D0600300080B200284FD033006A
:105250009BB2EA8869692068FFF78EFC47E0206806
:10526000297830F82100400419D52068B0F85000A2
:105270002978C90009182068411801F202410888FC
:105280008005800D0600300080B2002820D0330059
:105290009BB22A8969692068FFF76EFC18E02068D4
:1052A000B0F850002978C90009182068411801F2A7
:1052B000064108888005800D0600300080B2002875
:1052C00006D033009BB26A8969692068FFF754FCF5
:1052D0002068297830F8211048F68F70014041F499
:1052E000004151F0C00120682A7820F82210E869B6
:1052F00010FA86F0E8616869310089B20844686193
:10530000A869002804D0300080B22969884204D2FC
:105310002978200000F04FF805E0AB696A69297828
:105320002000FFF7A0FD404680B200067FF572AE78
:105330004846C0B240012044283005002068494654
:10534000C9B230F8211048F60F70014051F4004105
:1053500020684A46D2B220F822102068B0F85000E7
:105360002978C90009182068411801F2024108880B
:1053700080B28005800DE8616869E9690844686168
:10538000A869002804D12978200000F024F841E61B
:10539000AB696A6929782000FFF790FD3AE60020A2
:1053A000BDE8F08710B5040014F50C71D4F8700254
:1053B00000F0A7F910BD38B504000D002800C0B2F8
:1053C00040012044D0F83C212900C9B2D4F8700231
:1053D00000F0CBF931BD38B504000D002800C0B293
:1053E00040012044C26B2900C9B2D4F8700200F019
:1053F00013FA31BD10B50400D4F8700200F0D7FAEA
:1054000010BD38B504000125A068022801D0FBF7C3
:10541000F3FF2900C9B2D4F8700200F0B3FAD4F84F
:10542000700200F07FFA31BD10B50400D4F87002AC
:1054300000F0ACFAA069002805D0DFF8700201681E
:1054400051F00601016010BD10B50400A0690028EC
:1054500007D0DFF85802016831F00601016000F062
:1054600027F9D4F8700200F09BFA10BD2DE9F8433B
:1054700004000D0016001F005FF000095FF0000837
:105480003300DBB23A0092B22900C9B2D4F89802D4
:10549000FFF79AFC01000800C0B2002805D00228DE
:1054A00007D004D3032806D007E0002006E002203E
:1054B00004E0012002E0022000E00220C0B2BDE8CA
:1054C000F283F8B504000D00002700262900C9B2B8
:1054D000D4F89802FFF71DFD01000800C0B20028B3
:1054E00005D0022807D004D3032806D007E0002007
:1054F00006E0022004E0012002E0022000E0022099
:10550000C0B2F2BDF8B504000D0000270026290046
:10551000C9B2D4F89802FFF73EFD01000800C0B2FE
:10552000002805D0022807D004D3032806D007E0BE
:10553000002006E0022004E0012002E0022000E05A
:105540000220C0B2F2BD0200D2F898020B00DBB21A
:105550001B0607D5C9B211F07F014901084490F834
:105560002A0006E0C9B211F07F014901084490F811
:105570002A017047F8B504000D0000270026290015
:10558000C9B2D4F89802FFF707FC01000800C0B2C6
:10559000002805D0022807D004D3032806D007E04E
:1055A000002006E0022004E0012002E0022000E0EA
:1055B0000220C0B2F2BD2DE9F84304000D00160030
:1055C0001F005FF000095FF000083B009BB2320053
:1055D0002900C9B2D4F89802FFF770FC0100080056
:1055E000C0B2002805D0022807D004D3032806D073
:1055F00007E0002006E0022004E0012002E0022093
:1056000000E00220C0B2BDE8F2832DE9F8430400B7
:105610000D0016001F005FF000095FF000083B005E
:105620009BB232002900C9B2D4F89802FFF71BFCE4
:1056300001000800C0B2002805D0022807D004D31A
:10564000032806D007E0002006E0022004E0012045
:1056500002E0022000E00220C0B2BDE8F28338B5CB
:1056600004000D002800C0B2002802D001280FD08D
:105670001AE0A069002806D000F01AF80B4801686B
:1056800031F006010160D4F8700200F089F90BE0F6
:10569000D4F8700200F07AF9A069002804D0034819
:1056A000016851F00601016031BD000010ED00E01D
:1056B00080B5FBF769FD01BD01000020704770B5A2
:1056C00004000D000226D4F88C0200280AD029001C
:1056D000C9B22000D4F88C2212689047002801D16A
:1056E000002006003000C0B270BD38B504000D00C7
:1056F0002900C9B22000D4F88C22526890470020BB
:1057000032BD38B504000D00290014F5207000F0FA
:10571000F4FC0120C4F86C02B4F88602C4F87002EC
:1057200094F8800210F01F00002803D002280DD04A
:1057300006D311E014F52071200000F04BF912E0BF
:1057400014F52071200000F098F90CE014F5207198
:10575000200000F0C9F906E094F8801211F08001F1
:105760002000FFF7AEFE002032BDF8B504000F00A8
:1057700015003800C0B2002839D114F5A070060019
:10578000D4F86C02032826D13069F168884210D21F
:10579000F1683069091AF160F0683169884201D214
:1057A000F26800E0326992B22900200000F0E8FCC3
:1057B00030E0D4F88C020069002808D094F8740214
:1057C000032804D12000D4F88C12096988472000EE
:1057D00000F0E3FC1EE0D4F86C0205281AD100208A
:1057E000C4F86C0200212000FFF76BFE12E0D4F831
:1057F0008C02806900280BD094F87402032807D12A
:105800003900C9B22000D4F88C229269904701E097
:10581000022000E00020F2BDF8B504000D001600E3
:105820002800C0B2002868D114F114000700D4F891
:105830006C0202284AD13869F968884210D2F968A6
:105840003869091AF960FA6892B23100200000F054
:105850008AFC0023002200212000FFF7D6FE41E051
:10586000B8683969B0FBF1F201FB1200002817D1CA
:10587000B8683969884213D3B868D4F8701288427E
:105880000ED200220021200000F06DFC0020C4F8A0
:1058900070020023002200212000FFF7B6FE21E065
:1058A000D4F88C02C068002808D094F87402032849
:1058B00004D12000D4F88C12C968884780212000C8
:1058C000FFF7FFFD200000F075FC0BE0D4F86C0240
:1058D000042803D0D4F86C02002803D180212000D2
:1058E000FFF7EFFD94F87802012819D12000FFF7A7
:1058F000E3FE002084F8780212E0D4F88C024069BC
:1059000000280BD094F87402032807D12900C9B2EB
:105910002000D4F88C225269904701E0022000E078
:105920000020F2BD10B50400402300220021200019
:10593000FFF79CFD0120C4F844014020C4F8500149
:105940004023002280212000FFF790FD0120A0616C
:1059500040206062012084F874020020C4F86C02C8
:10596000002060600020C4F87C02D4F89002002877
:1059700006D06168C9B22000D4F88C2252689047E2
:10598000002010BD0200117400207047010091F842
:10599000740281F87502042081F8740200207047B7
:1059A000010091F8750281F874020020704710B56B
:1059B000040094F87402032809D1D4F88C02C06959
:1059C000002804D02000D4F88C12C9698847002030
:1059D00010BD000070B504000D000026287810F0FE
:1059E000600000280AD0202801D040283ED129009C
:1059F0002000D4F88C22926890473BE06878002819
:105A000020D0012828D0032821D005280BD0062833
:105A100004D0082811D009280AD022E0290020004B
:105A200000F0A0F921E02900200000F057FA1CE066
:105A30002900200000F086FA17E02900200000F07D
:105A4000EBFA12E02900200000F00DFB0DE0290028
:105A5000200000F02EFB08E02900200000F036FBBB
:105A600003E02900200000F05CFB03E02900200097
:105A700000F057FB3000C0B270BD70B504000D00DF
:105A80000026287810F06000002803D0202801D0DC
:105A9000402823D194F87402401E022819D828798E
:105AA000022811D229002000D4F88C229268904755
:105AB0000600E88800280BD13000C0B2002807D1CA
:105AC000200000F06AFB03E02900200000F029FB21
:105AD00003E02900200000F024FB03E0290020005F
